{
  "_format": "hh-sol-artifact-1",
  "contractName": "FractionalToken",
  "sourceName": "contracts/FractionalMarket.sol",
  "abi": [
    {
      "inputs": [],
      "stateMutability": "nonpayable",
      "type": "constructor"
    },
    {
      "anonymous": false,
      "inputs": [
        {
          "indexed": true,
          "internalType": "address",
          "name": "account",
          "type": "address"
        },
        {
          "indexed": true,
          "internalType": "address",
          "name": "operator",
          "type": "address"
        },
        {
          "indexed": false,
          "internalType": "bool",
          "name": "approved",
          "type": "bool"
        }
      ],
      "name": "ApprovalForAll",
      "type": "event"
    },
    {
      "anonymous": false,
      "inputs": [
        {
          "indexed": false,
          "internalType": "uint256",
          "name": "tokenId",
          "type": "uint256"
        },
        {
          "indexed": false,
          "internalType": "uint256",
          "name": "totalSupply",
          "type": "uint256"
        }
      ],
      "name": "TokenCreated",
      "type": "event"
    },
    {
      "anonymous": false,
      "inputs": [
        {
          "indexed": false,
          "internalType": "uint256",
          "name": "tokenId",
          "type": "uint256"
        }
      ],
      "name": "TokenListed",
      "type": "event"
    },
    {
      "anonymous": false,
      "inputs": [
        {
          "indexed": true,
          "internalType": "uint256",
          "name": "tokenId",
          "type": "uint256"
        },
        {
          "indexed": false,
          "internalType": "address",
          "name": "owner",
          "type": "address"
        },
        {
          "indexed": false,
          "internalType": "address",
          "name": "seller",
          "type": "address"
        },
        {
          "indexed": false,
          "internalType": "uint256",
          "name": "price",
          "type": "uint256"
        }
      ],
      "name": "TokenListedSuccess",
      "type": "event"
    },
    {
      "anonymous": false,
      "inputs": [
        {
          "indexed": false,
          "internalType": "uint256",
          "name": "tokenId",
          "type": "uint256"
        },
        {
          "indexed": false,
          "internalType": "address",
          "name": "from",
          "type": "address"
        },
        {
          "indexed": false,
          "internalType": "address",
          "name": "to",
          "type": "address"
        },
        {
          "indexed": false,
          "internalType": "uint256",
          "name": "amount",
          "type": "uint256"
        }
      ],
      "name": "TokenTransferred",
      "type": "event"
    },
    {
      "anonymous": false,
      "inputs": [
        {
          "indexed": true,
          "internalType": "address",
          "name": "operator",
          "type": "address"
        },
        {
          "indexed": true,
          "internalType": "address",
          "name": "from",
          "type": "address"
        },
        {
          "indexed": true,
          "internalType": "address",
          "name": "to",
          "type": "address"
        },
        {
          "indexed": false,
          "internalType": "uint256[]",
          "name": "ids",
          "type": "uint256[]"
        },
        {
          "indexed": false,
          "internalType": "uint256[]",
          "name": "values",
          "type": "uint256[]"
        }
      ],
      "name": "TransferBatch",
      "type": "event"
    },
    {
      "anonymous": false,
      "inputs": [
        {
          "indexed": true,
          "internalType": "address",
          "name": "operator",
          "type": "address"
        },
        {
          "indexed": true,
          "internalType": "address",
          "name": "from",
          "type": "address"
        },
        {
          "indexed": true,
          "internalType": "address",
          "name": "to",
          "type": "address"
        },
        {
          "indexed": false,
          "internalType": "uint256",
          "name": "id",
          "type": "uint256"
        },
        {
          "indexed": false,
          "internalType": "uint256",
          "name": "value",
          "type": "uint256"
        }
      ],
      "name": "TransferSingle",
      "type": "event"
    },
    {
      "anonymous": false,
      "inputs": [
        {
          "indexed": false,
          "internalType": "string",
          "name": "value",
          "type": "string"
        },
        {
          "indexed": true,
          "internalType": "uint256",
          "name": "id",
          "type": "uint256"
        }
      ],
      "name": "URI",
      "type": "event"
    },
    {
      "inputs": [
        {
          "internalType": "address",
          "name": "account",
          "type": "address"
        },
        {
          "internalType": "uint256",
          "name": "id",
          "type": "uint256"
        }
      ],
      "name": "balanceOf",
      "outputs": [
        {
          "internalType": "uint256",
          "name": "",
          "type": "uint256"
        }
      ],
      "stateMutability": "view",
      "type": "function"
    },
    {
      "inputs": [
        {
          "internalType": "address[]",
          "name": "accounts",
          "type": "address[]"
        },
        {
          "internalType": "uint256[]",
          "name": "ids",
          "type": "uint256[]"
        }
      ],
      "name": "balanceOfBatch",
      "outputs": [
        {
          "internalType": "uint256[]",
          "name": "",
          "type": "uint256[]"
        }
      ],
      "stateMutability": "view",
      "type": "function"
    },
    {
      "inputs": [
        {
          "internalType": "uint256",
          "name": "_tokenId",
          "type": "uint256"
        },
        {
          "internalType": "uint256",
          "name": "_supply",
          "type": "uint256"
        }
      ],
      "name": "bringToMarket",
      "outputs": [],
      "stateMutability": "payable",
      "type": "function"
    },
    {
      "inputs": [
        {
          "internalType": "string",
          "name": "tokenURI",
          "type": "string"
        },
        {
          "internalType": "uint256",
          "name": "_totalSupply",
          "type": "uint256"
        },
        {
          "internalType": "uint256",
          "name": "_price",
          "type": "uint256"
        }
      ],
      "name": "createToken",
      "outputs": [
        {
          "internalType": "uint256",
          "name": "",
          "type": "uint256"
        }
      ],
      "stateMutability": "payable",
      "type": "function"
    },
    {
      "inputs": [
        {
          "internalType": "uint256",
          "name": "_tokenId",
          "type": "uint256"
        },
        {
          "internalType": "uint256",
          "name": "_amount",
          "type": "uint256"
        }
      ],
      "name": "executeSale",
      "outputs": [],
      "stateMutability": "payable",
      "type": "function"
    },
    {
      "inputs": [],
      "name": "getAllTokens",
      "outputs": [
        {
          "components": [
            {
              "internalType": "uint256",
              "name": "token_id",
              "type": "uint256"
            },
            {
              "internalType": "address",
              "name": "creator",
              "type": "address"
            },
            {
              "internalType": "uint256",
              "name": "price",
              "type": "uint256"
            },
            {
              "internalType": "uint256",
              "name": "balance",
              "type": "uint256"
            },
            {
              "internalType": "uint256",
              "name": "total_supply",
              "type": "uint256"
            },
            {
              "internalType": "address[]",
              "name": "holders",
              "type": "address[]"
            }
          ],
          "internalType": "struct FractionalToken.tokens[]",
          "name": "",
          "type": "tuple[]"
        }
      ],
      "stateMutability": "view",
      "type": "function"
    },
    {
      "inputs": [
        {
          "internalType": "uint256",
          "name": "_id",
          "type": "uint256"
        }
      ],
      "name": "getHoldersWithBalances",
      "outputs": [
        {
          "components": [
            {
              "internalType": "address",
              "name": "holder",
              "type": "address"
            },
            {
              "internalType": "uint256",
              "name": "holding",
              "type": "uint256"
            }
          ],
          "internalType": "struct FractionalToken.tokenHolders[]",
          "name": "",
          "type": "tuple[]"
        }
      ],
      "stateMutability": "view",
      "type": "function"
    },
    {
      "inputs": [],
      "name": "getListPrice",
      "outputs": [
        {
          "internalType": "uint256",
          "name": "",
          "type": "uint256"
        }
      ],
      "stateMutability": "view",
      "type": "function"
    },
    {
      "inputs": [
        {
          "internalType": "uint256",
          "name": "_tokenId",
          "type": "uint256"
        }
      ],
      "name": "getTokenTotalSupply",
      "outputs": [
        {
          "internalType": "uint256",
          "name": "",
          "type": "uint256"
        }
      ],
      "stateMutability": "view",
      "type": "function"
    },
    {
      "inputs": [
        {
          "internalType": "uint256",
          "name": "_id",
          "type": "uint256"
        }
      ],
      "name": "getTokens",
      "outputs": [
        {
          "components": [
            {
              "internalType": "uint256",
              "name": "token_id",
              "type": "uint256"
            },
            {
              "internalType": "address",
              "name": "creator",
              "type": "address"
            },
            {
              "internalType": "uint256",
              "name": "price",
              "type": "uint256"
            },
            {
              "internalType": "uint256",
              "name": "balance",
              "type": "uint256"
            },
            {
              "internalType": "uint256",
              "name": "total_supply",
              "type": "uint256"
            },
            {
              "internalType": "address[]",
              "name": "holders",
              "type": "address[]"
            }
          ],
          "internalType": "struct FractionalToken.tokens",
          "name": "",
          "type": "tuple"
        }
      ],
      "stateMutability": "view",
      "type": "function"
    },
    {
      "inputs": [
        {
          "internalType": "address",
          "name": "_of",
          "type": "address"
        }
      ],
      "name": "getTokensOf",
      "outputs": [
        {
          "components": [
            {
              "internalType": "uint256",
              "name": "token_id",
              "type": "uint256"
            },
            {
              "internalType": "address",
              "name": "creator",
              "type": "address"
            },
            {
              "internalType": "uint256",
              "name": "price",
              "type": "uint256"
            },
            {
              "internalType": "uint256",
              "name": "balance",
              "type": "uint256"
            },
            {
              "internalType": "uint256",
              "name": "total_supply",
              "type": "uint256"
            },
            {
              "internalType": "address[]",
              "name": "holders",
              "type": "address[]"
            }
          ],
          "internalType": "struct FractionalToken.tokens[]",
          "name": "",
          "type": "tuple[]"
        }
      ],
      "stateMutability": "view",
      "type": "function"
    },
    {
      "inputs": [
        {
          "internalType": "uint256",
          "name": "",
          "type": "uint256"
        },
        {
          "internalType": "uint256",
          "name": "",
          "type": "uint256"
        }
      ],
      "name": "holdersWithBalances",
      "outputs": [
        {
          "internalType": "address",
          "name": "holder",
          "type": "address"
        },
        {
          "internalType": "uint256",
          "name": "holding",
          "type": "uint256"
        }
      ],
      "stateMutability": "view",
      "type": "function"
    },
    {
      "inputs": [
        {
          "internalType": "address",
          "name": "account",
          "type": "address"
        },
        {
          "internalType": "address",
          "name": "operator",
          "type": "address"
        }
      ],
      "name": "isApprovedForAll",
      "outputs": [
        {
          "internalType": "bool",
          "name": "",
          "type": "bool"
        }
      ],
      "stateMutability": "view",
      "type": "function"
    },
    {
      "inputs": [
        {
          "internalType": "address",
          "name": "",
          "type": "address"
        },
        {
          "internalType": "address",
          "name": "",
          "type": "address"
        },
        {
          "internalType": "uint256[]",
          "name": "",
          "type": "uint256[]"
        },
        {
          "internalType": "uint256[]",
          "name": "",
          "type": "uint256[]"
        },
        {
          "internalType": "bytes",
          "name": "",
          "type": "bytes"
        }
      ],
      "name": "onERC1155BatchReceived",
      "outputs": [
        {
          "internalType": "bytes4",
          "name": "",
          "type": "bytes4"
        }
      ],
      "stateMutability": "nonpayable",
      "type": "function"
    },
    {
      "inputs": [
        {
          "internalType": "address",
          "name": "",
          "type": "address"
        },
        {
          "internalType": "address",
          "name": "",
          "type": "address"
        },
        {
          "internalType": "uint256",
          "name": "",
          "type": "uint256"
        },
        {
          "internalType": "uint256",
          "name": "",
          "type": "uint256"
        },
        {
          "internalType": "bytes",
          "name": "",
          "type": "bytes"
        }
      ],
      "name": "onERC1155Received",
      "outputs": [
        {
          "internalType": "bytes4",
          "name": "",
          "type": "bytes4"
        }
      ],
      "stateMutability": "nonpayable",
      "type": "function"
    },
    {
      "inputs": [
        {
          "internalType": "address",
          "name": "from",
          "type": "address"
        },
        {
          "internalType": "address",
          "name": "to",
          "type": "address"
        },
        {
          "internalType": "uint256[]",
          "name": "ids",
          "type": "uint256[]"
        },
        {
          "internalType": "uint256[]",
          "name": "amounts",
          "type": "uint256[]"
        },
        {
          "internalType": "bytes",
          "name": "data",
          "type": "bytes"
        }
      ],
      "name": "safeBatchTransferFrom",
      "outputs": [],
      "stateMutability": "nonpayable",
      "type": "function"
    },
    {
      "inputs": [
        {
          "internalType": "address",
          "name": "from",
          "type": "address"
        },
        {
          "internalType": "address",
          "name": "to",
          "type": "address"
        },
        {
          "internalType": "uint256",
          "name": "id",
          "type": "uint256"
        },
        {
          "internalType": "uint256",
          "name": "amount",
          "type": "uint256"
        },
        {
          "internalType": "bytes",
          "name": "data",
          "type": "bytes"
        }
      ],
      "name": "safeTransferFrom",
      "outputs": [],
      "stateMutability": "nonpayable",
      "type": "function"
    },
    {
      "inputs": [
        {
          "internalType": "address",
          "name": "operator",
          "type": "address"
        },
        {
          "internalType": "bool",
          "name": "approved",
          "type": "bool"
        }
      ],
      "name": "setApprovalForAll",
      "outputs": [],
      "stateMutability": "nonpayable",
      "type": "function"
    },
    {
      "inputs": [
        {
          "internalType": "bytes4",
          "name": "interfaceId",
          "type": "bytes4"
        }
      ],
      "name": "supportsInterface",
      "outputs": [
        {
          "internalType": "bool",
          "name": "",
          "type": "bool"
        }
      ],
      "stateMutability": "view",
      "type": "function"
    },
    {
      "inputs": [
        {
          "internalType": "uint256",
          "name": "",
          "type": "uint256"
        }
      ],
      "name": "tokenURIs",
      "outputs": [
        {
          "internalType": "string",
          "name": "",
          "type": "string"
        }
      ],
      "stateMutability": "view",
      "type": "function"
    },
    {
      "inputs": [
        {
          "internalType": "uint256",
          "name": "",
          "type": "uint256"
        }
      ],
      "name": "tokensCreated",
      "outputs": [
        {
          "internalType": "uint256",
          "name": "token_id",
          "type": "uint256"
        },
        {
          "internalType": "address",
          "name": "creator",
          "type": "address"
        },
        {
          "internalType": "uint256",
          "name": "price",
          "type": "uint256"
        },
        {
          "internalType": "uint256",
          "name": "balance",
          "type": "uint256"
        },
        {
          "internalType": "uint256",
          "name": "total_supply",
          "type": "uint256"
        }
      ],
      "stateMutability": "view",
      "type": "function"
    },
    {
      "inputs": [
        {
          "internalType": "address",
          "name": "",
          "type": "address"
        },
        {
          "internalType": "uint256",
          "name": "",
          "type": "uint256"
        }
      ],
      "name": "tokensOf",
      "outputs": [
        {
          "internalType": "uint256",
          "name": "token_id",
          "type": "uint256"
        },
        {
          "internalType": "address",
          "name": "creator",
          "type": "address"
        },
        {
          "internalType": "uint256",
          "name": "price",
          "type": "uint256"
        },
        {
          "internalType": "uint256",
          "name": "balance",
          "type": "uint256"
        },
        {
          "internalType": "uint256",
          "name": "total_supply",
          "type": "uint256"
        }
      ],
      "stateMutability": "view",
      "type": "function"
    },
    {
      "inputs": [
        {
          "internalType": "uint256",
          "name": "",
          "type": "uint256"
        }
      ],
      "name": "totalSupply",
      "outputs": [
        {
          "internalType": "uint256",
          "name": "",
          "type": "uint256"
        }
      ],
      "stateMutability": "view",
      "type": "function"
    },
    {
      "inputs": [
        {
          "internalType": "uint256",
          "name": "_tokenId",
          "type": "uint256"
        },
        {
          "internalType": "address",
          "name": "_to",
          "type": "address"
        },
        {
          "internalType": "uint256",
          "name": "_amount",
          "type": "uint256"
        }
      ],
      "name": "transferFraction",
      "outputs": [],
      "stateMutability": "payable",
      "type": "function"
    },
    {
      "inputs": [
        {
          "internalType": "uint256",
          "name": "_listPrice",
          "type": "uint256"
        }
      ],
      "name": "updateListPrice",
      "outputs": [],
      "stateMutability": "payable",
      "type": "function"
    },
    {
      "inputs": [
        {
          "internalType": "uint256",
          "name": "tokenId",
          "type": "uint256"
        }
      ],
      "name": "uri",
      "outputs": [
        {
          "internalType": "string",
          "name": "",
          "type": "string"
        }
      ],
      "stateMutability": "view",
      "type": "function"
    }
  ],
  "bytecode": "0x6080604052662386f26fc100006006553480156200001c57600080fd5b5060408051808201909152600f81526e233930b1ba34b7b730b62a37b5b2b760891b60208201526200004e8162000067565b50600580546001600160a01b0319163317905562000163565b80516200007c90600290602084019062000080565b5050565b8280546200008e9062000126565b90600052602060002090601f016020900481019282620000b25760008555620000fd565b82601f10620000cd57805160ff1916838001178555620000fd565b82800160010185558215620000fd579182015b82811115620000fd578251825591602001919060010190620000e0565b506200010b9291506200010f565b5090565b5b808211156200010b576000815560010162000110565b600181811c908216806200013b57607f821691505b602082108114156200015d57634e487b7160e01b600052602260045260246000fd5b50919050565b613e4780620001736000396000f3fe6080604052600436106101805760003560e01c80636c8b703f116100d1578063c322579c1161008a578063e985e9c511610064578063e985e9c514610509578063f23a6e6114610552578063f242432a1461057e578063f6d43e951461059e57600080fd5b8063c322579c1461049c578063cc86baad146104af578063d3c9cc26146104dc57600080fd5b80636c8b703f146103c457806394e53ea7146103e4578063a22cb465146103f7578063bc197c8114610417578063bd85b0391461045c578063bec2a7c51461048957600080fd5b80632eb2c2d61161013e5780634437b60b116101185780634437b60b1461035c5780634e1273f41461036f57806368f1945f1461039c5780636a7302c2146103b157600080fd5b80632eb2c2d61461029657806338a3dbae146102b857806341abf5711461030857600080fd5b8062fdd58e1461018557806301ffc9a7146101b857806307f950f1146101e85780630986b210146102275780630e89341c146102545780632a5c792a14610281575b600080fd5b34801561019157600080fd5b506101a56101a03660046135a6565b6105cb565b6040519081526020015b60405180910390f35b3480156101c457600080fd5b506101d86101d336600461369a565b610661565b60405190151581526020016101af565b3480156101f457600080fd5b5061020861020336600461377d565b610681565b604080516001600160a01b0390931683526020830191909152016101af565b34801561023357600080fd5b50610247610242366004613417565b6106c7565b6040516101af91906139ea565b34801561026057600080fd5b5061027461026f366004613731565b6107d1565b6040516101af9190613a8c565b34801561028d57600080fd5b50610247610873565b3480156102a257600080fd5b506102b66102b1366004613463565b6109e6565b005b3480156102c457600080fd5b506102d86102d33660046135a6565b610a32565b604080519586526001600160a01b039094166020860152928401919091526060830152608082015260a0016101af565b34801561031457600080fd5b506102d8610323366004613731565b6009602052600090815260409020805460018201546002830154600384015460049094015492936001600160a01b039092169290919085565b6102b661036a36600461377d565b610a8a565b34801561037b57600080fd5b5061038f61038a3660046135cf565b610c10565b6040516101af9190613a4b565b3480156103a857600080fd5b506006546101a5565b6102b66103bf36600461377d565b610d72565b3480156103d057600080fd5b506102746103df366004613731565b610df8565b6102b66103f2366004613749565b610e92565b34801561040357600080fd5b506102b661041236600461356c565b611458565b34801561042357600080fd5b50610443610432366004613463565b63bc197c8160e01b95945050505050565b6040516001600160e01b031990911681526020016101af565b34801561046857600080fd5b506101a5610477366004613731565b60076020526000908152604090205481565b6101a56104973660046136d2565b611467565b6102b66104aa366004613731565b611831565b3480156104bb57600080fd5b506101a56104ca366004613731565b60009081526007602052604090205490565b3480156104e857600080fd5b506104fc6104f7366004613731565b61189c565b6040516101af9190613bf2565b34801561051557600080fd5b506101d8610524366004613431565b6001600160a01b03918216600090815260016020908152604080832093909416825291909152205460ff1690565b34801561055e57600080fd5b5061044361056d366004613509565b63f23a6e6160e01b95945050505050565b34801561058a57600080fd5b506102b6610599366004613509565b61195a565b3480156105aa57600080fd5b506105be6105b9366004613731565b61199f565b6040516101af9190613992565b60006001600160a01b03831661063b5760405162461bcd60e51b815260206004820152602a60248201527f455243313135353a2061646472657373207a65726f206973206e6f742061207660448201526930b634b21037bbb732b960b11b60648201526084015b60405180910390fd5b506000908152602081815260408083206001600160a01b03949094168352929052205490565b600061066c82611a1c565b8061067b575061067b82611a6c565b92915050565b6008602052816000526040600020818154811061069d57600080fd5b6000918252602090912060029091020180546001909101546001600160a01b039091169250905082565b6001600160a01b0381166000908152600a60209081526040808320805482518185028101850190935280835260609492939192909184015b828210156107c65760008481526020908190206040805160c081018252600686029092018054835260018101546001600160a01b03168385015260028101548383015260038101546060840152600481015460808401526005810180548351818702810187019094528084529394919360a0860193928301828280156107ae57602002820191906000526020600020905b81546001600160a01b03168152600190910190602001808311610790575b505050505081525050815260200190600101906106ff565b505050509050919050565b6000818152600b602052604090208054606091906107ee90613ca7565b80601f016020809104026020016040519081016040528092919081815260200182805461081a90613ca7565b80156108675780601f1061083c57610100808354040283529160200191610867565b820191906000526020600020905b81548152906001019060200180831161084a57829003601f168201915b50505050509050919050565b6060600061088060035490565b905060008167ffffffffffffffff8111156108ab57634e487b7160e01b600052604160045260246000fd5b6040519080825280602002602001820160405280156108e457816020015b6108d16131d6565b8152602001906001900390816108c95790505b50905060005b828110156109df57600081815260096020908152604091829020825160c0810184528154815260018201546001600160a01b03168184015260028201548185015260038201546060820152600482015460808201526005820180548551818602810186019096528086529194929360a0860193929083018282801561099857602002820191906000526020600020905b81546001600160a01b0316815260019091019060200180831161097a575b5050505050815250508282815181106109c157634e487b7160e01b600052603260045260246000fd5b602002602001018190525080806109d790613d0f565b9150506108ea565b5092915050565b6001600160a01b038516331480610a025750610a028533610524565b610a1e5760405162461bcd60e51b815260040161063290613b15565b610a2b8585858585611a91565b5050505050565b600a6020528160005260406000208181548110610a4e57600080fd5b6000918252602090912060069091020180546001820154600283015460038401546004909401549295506001600160a01b039091169350919085565b60405163a22cb46560e01b815233600482015260016024820152309063a22cb46590604401600060405180830381600087803b158015610ac957600080fd5b505af1158015610add573d6000803e3d6000fd5b5050505080610aec30846105cb565b1015610b0a5760405162461bcd60e51b815260040161063290613ae7565b600082815260096020526040902060020154610b268282613c41565b341015610b9d576040805162461bcd60e51b81526020600482015260248101919091527f506c65617365207375626d6974207468652061736b696e67207072696365206960448201527f6e206f7264657220746f20636f6d706c657465207468652070757263686173656064820152608401610632565b610bb9303385856040518060200160405280600081525061195a565b610bc7600480546001019055565b6005546040516001600160a01b03909116903480156108fc02916000818181858888f19350505050158015610c00573d6000803e3d6000fd5b50610c0b8383611c8a565b505050565b60608151835114610c755760405162461bcd60e51b815260206004820152602960248201527f455243313135353a206163636f756e747320616e6420696473206c656e677468604482015268040dad2e6dac2e8c6d60bb1b6064820152608401610632565b6000835167ffffffffffffffff811115610c9f57634e487b7160e01b600052604160045260246000fd5b604051908082528060200260200182016040528015610cc8578160200160208202803683370190505b50905060005b8451811015610d6a57610d2f858281518110610cfa57634e487b7160e01b600052603260045260246000fd5b6020026020010151858381518110610d2257634e487b7160e01b600052603260045260246000fd5b60200260200101516105cb565b828281518110610d4f57634e487b7160e01b600052603260045260246000fd5b6020908102919091010152610d6381613d0f565b9050610cce565b509392505050565b80610d7d33846105cb565b1015610d9b5760405162461bcd60e51b815260040161063290613ae7565b610db7333084846040518060200160405280600081525061195a565b610dc182826121f6565b6040518281527f90aedd550c880e8ce9df04c011e7038e7cd271d1fa351cb2fb27dcc93310502c9060200160405180910390a15050565b600b6020526000908152604090208054610e1190613ca7565b80601f0160208091040260200160405190810160405280929190818152602001828054610e3d90613ca7565b8015610e8a5780601f10610e5f57610100808354040283529160200191610e8a565b820191906000526020600020905b815481529060010190602001808311610e6d57829003601f168201915b505050505081565b336001600160a01b0383161415610eeb5760405162461bcd60e51b815260206004820152601c60248201527f43616e6e6f742073656e6420746f2074686973206164647265737320000000006044820152606401610632565b80610ef633856105cb565b1015610f145760405162461bcd60e51b815260040161063290613ae7565b610f30338385846040518060200160405280600081525061195a565b60005b336000908152600a602052604090205481101561100357336000908152600a60205260409020805485919083908110610f7c57634e487b7160e01b600052603260045260246000fd5b9060005260206000209060060201600001541415610ff157336000908152600a60205260409020805483919083908110610fc657634e487b7160e01b600052603260045260246000fd5b90600052602060002090600602016003016000828254610fe69190613c60565b909155506110039050565b80610ffb81613d0f565b915050610f33565b506000805b6001600160a01b0384166000908152600a60205260409020548110156110f7576001600160a01b0384166000908152600a6020526040902080548691908390811061106357634e487b7160e01b600052603260045260246000fd5b90600052602060002090600602016000015414156110e5576001600160a01b0384166000908152600a602052604090208054849190839081106110b657634e487b7160e01b600052603260045260246000fd5b906000526020600020906006020160030160008282546110d69190613c29565b90915550600192506110f79050565b806110ef81613d0f565b915050611008565b50806111d9576001600160a01b038381166000908152600a60209081526040808320815160c08101835289815289855260098085528386206001808201548916848801908152600280840154868901908152606087018e8152958a526004948501546080880190815289518c8152808c01909a5260a08801998a5288548086018a55988c529a8a90208751600690990201978855915192870180546001600160a01b03191693909b16929092179099559751978401979097555160038301559351948101949094555180519293926111d59260058501920190613215565b5050505b6111e38483612693565b6000805b6000868152600860205260409020548110156112c957600086815260086020526040902080546001600160a01b03871691908390811061123757634e487b7160e01b600052603260045260246000fd5b60009182526020909120600290910201546001600160a01b031614156112b757600086815260086020526040902080548591908390811061128857634e487b7160e01b600052603260045260246000fd5b906000526020600020906002020160010160008282546112a89190613c29565b90915550600192506112c99050565b806112c181613d0f565b9150506111e7565b508061133157600085815260086020908152604080832081518083019092526001600160a01b038881168352828401888152825460018082018555938752949095209251600290940290920180546001600160a01b0319169390921692909217815591519101555b6000805b6000878152600960205260409020600501548110156113c157600087815260096020526040902060050180546001600160a01b03881691908390811061138b57634e487b7160e01b600052603260045260246000fd5b6000918252602090912001546001600160a01b031614156113af57600191506113c1565b806113b981613d0f565b915050611335565b50806114025760008681526009602090815260408220600501805460018101825590835291200180546001600160a01b0319166001600160a01b0387161790555b604080518781523360208201526001600160a01b038716818301526060810186905290517fdc5e8cc6b36001921ea942b2d0334e09fcc347e33b47a83d9a6c5c2a521d329c9181900360800190a1505050505050565b611463338383612a8f565b5050565b60008083116114c45760405162461bcd60e51b815260206004820152602360248201527f546f74616c20737570706c79206d75737420626520677265617465722074686160448201526206e20360ec1b6064820152608401610632565b600654341461150e5760405162461bcd60e51b815260206004820152601660248201527553656e642074686520636f727265637420707269636560501b6044820152606401610632565b661ff973cafa8000821161152183612b70565b6040516020016115319190613891565b6040516020818303038152906040529061155e5760405162461bcd60e51b81526004016106329190613a8c565b50600061156a60035490565b60408051600180825281830190925291925060009190602080830190803683375050506000838152600760209081526040808320899055805191820190529081529091506115bd90339084908890612c13565b6005546006546040516001600160a01b039092169181156108fc0291906000818181858888f193505050501580156115f9573d6000803e3d6000fd5b5060008281526008602090815260408083208151808301909252338083528284018a81528254600180820185559387529486209351600290950290930180546001600160a01b0319166001600160a01b03909516949094178455915192019190915582519091839161167b57634e487b7160e01b600052603260045260246000fd5b6001600160a01b039283166020918202929092018101919091526040805160c08101825285815233818401908152818301898152606083018b8152608084018c815260a0850189815260008b815260098952969096208551815593516001850180546001600160a01b031916919099161790975590516002830155516003820155935160048501559051805191939261171c92600585019290910190613215565b5050336000818152600a60209081526040808320815160c0810183528881528084019586529182018a8152606083018c8152608084018d815260a085018a8152845460018082018755958952978790208651600690990201978855975193870180546001600160a01b0319166001600160a01b0390951694909417909355905160028601555160038501555160048401559251805193945091926117c69260058501920190613215565b505060408051848152602081018890527f52922827b9438aa2e63a37e11aa3ae44e0536c26374251088fbc3a47589aed7b92500160405180910390a1600061180d60035490565b90506118198188612d27565b611827600380546001019055565b9695505050505050565b6005546001600160a01b031633146118975760405162461bcd60e51b815260206004820152602360248201527f4f6e6c79206f776e65722063616e20757064617465206c697374696e6720707260448201526269636560e81b6064820152608401610632565b600655565b6118a46131d6565b600082815260096020908152604091829020825160c0810184528154815260018201546001600160a01b03168184015260028201548185015260038201546060820152600482015460808201526005820180548551818602810186019096528086529194929360a0860193929083018282801561194a57602002820191906000526020600020905b81546001600160a01b0316815260019091019060200180831161192c575b5050505050815250509050919050565b6001600160a01b03851633148061197657506119768533610524565b6119925760405162461bcd60e51b815260040161063290613b15565b610a2b8585858585612d46565b606060086000838152602001908152602001600020805480602002602001604051908101604052809291908181526020016000905b828210156107c6576000848152602090819020604080518082019091526002850290910180546001600160a01b031682526001908101548284015290835290920191016119d4565b60006001600160e01b03198216636cdb3d1360e11b1480611a4d57506001600160e01b031982166303a24d0760e21b145b8061067b57506301ffc9a760e01b6001600160e01b031983161461067b565b60006001600160e01b03198216630271189760e51b148061067b575061067b82611a1c565b8151835114611af35760405162461bcd60e51b815260206004820152602860248201527f455243313135353a2069647320616e6420616d6f756e7473206c656e677468206044820152670dad2e6dac2e8c6d60c31b6064820152608401610632565b6001600160a01b038416611b195760405162461bcd60e51b815260040161063290613b63565b3360005b8451811015611c1c576000858281518110611b4857634e487b7160e01b600052603260045260246000fd5b602002602001015190506000858381518110611b7457634e487b7160e01b600052603260045260246000fd5b602090810291909101810151600084815280835260408082206001600160a01b038e168352909352919091205490915081811015611bc45760405162461bcd60e51b815260040161063290613ba8565b6000838152602081815260408083206001600160a01b038e8116855292528083208585039055908b16825281208054849290611c01908490613c29565b9250508190555050505080611c1590613d0f565b9050611b1d565b50846001600160a01b0316866001600160a01b0316826001600160a01b03167f4a39dc06d4c0dbc64b70af90fd698a233a518aa5d07e595d983b8c0526c8f7fb8787604051611c6c929190613a5e565b60405180910390a4611c82818787878787612e70565b505050505050565b60005b306000908152600a6020526040902054811015611d5d57306000908152600a60205260409020805484919083908110611cd657634e487b7160e01b600052603260045260246000fd5b9060005260206000209060060201600001541415611d4b57306000908152600a60205260409020805483919083908110611d2057634e487b7160e01b600052603260045260246000fd5b90600052602060002090600602016003016000828254611d409190613c60565b90915550611d5d9050565b80611d5581613d0f565b915050611c8d565b506000805b336000908152600a6020526040902054811015611e3657336000908152600a60205260409020805485919083908110611dab57634e487b7160e01b600052603260045260246000fd5b9060005260206000209060060201600001541415611e2457336000908152600a60205260409020805484919083908110611df557634e487b7160e01b600052603260045260246000fd5b90600052602060002090600602016003016000828254611e159190613c29565b9091555060019250611e369050565b80611e2e81613d0f565b915050611d62565b5080611f1657336000908152600a60209081526040808320815160c08101835287815287855260098085528386206001808201546001600160a01b03908116858901908152600280850154878a01908152606088018e8152968b52600495860154608089019081528a518d8152808d01909b5260a089019a8b5289548087018b55998d529b8b902088516006909a0201988955915193880180546001600160a01b0319169490931693909317909155519085015590516003840155945194820194909455905180519192611f1292600585019290910190613215565b5050505b60005b600084815260086020526040902054811015611fee576000848152600860205260409020805430919083908110611f6057634e487b7160e01b600052603260045260246000fd5b60009182526020909120600290910201546001600160a01b03161415611fdc576000848152600860205260409020805484919083908110611fb157634e487b7160e01b600052603260045260246000fd5b90600052602060002090600202016001016000828254611fd19190613c60565b90915550611fee9050565b80611fe681613d0f565b915050611f19565b506000805b6000858152600860205260409020548110156120cc57600085815260086020526040902080543391908390811061203a57634e487b7160e01b600052603260045260246000fd5b60009182526020909120600290910201546001600160a01b031614156120ba57600085815260086020526040902080548591908390811061208b57634e487b7160e01b600052603260045260246000fd5b906000526020600020906002020160010160008282546120ab9190613c29565b90915550600192506120cc9050565b806120c481613d0f565b915050611ff3565b50806121315760008481526008602090815260408083208151808301909252338252818301878152815460018082018455928652939094209151600290930290910180546001600160a01b0319166001600160a01b0390931692909217825591519101555b6000805b6000868152600960205260409020600501548110156121b857600086815260096020526040902060050180543391908390811061218257634e487b7160e01b600052603260045260246000fd5b6000918252602090912001546001600160a01b031614156121a657600191506121b8565b806121b081613d0f565b915050612135565b5080610a2b5760008581526009602090815260408220600501805460018101825590835291200180546001600160a01b031916331790555050505050565b60005b336000908152600a60205260409020548110156122c957336000908152600a6020526040902080548491908390811061224257634e487b7160e01b600052603260045260246000fd5b90600052602060002090600602016000015414156122b757336000908152600a6020526040902080548391908390811061228c57634e487b7160e01b600052603260045260246000fd5b906000526020600020906006020160030160008282546122ac9190613c60565b909155506122c99050565b806122c181613d0f565b9150506121f9565b506000805b306000908152600a60205260409020548110156123a257306000908152600a6020526040902080548591908390811061231757634e487b7160e01b600052603260045260246000fd5b906000526020600020906006020160000154141561239057306000908152600a6020526040902080548491908390811061236157634e487b7160e01b600052603260045260246000fd5b906000526020600020906006020160030160008282546123819190613c29565b90915550600192506123a29050565b8061239a81613d0f565b9150506122ce565b508061248257306000908152600a60209081526040808320815160c08101835287815287855260098085528386206001808201546001600160a01b03908116858901908152600280850154878a01908152606088018e8152968b52600495860154608089019081528a518d8152808d01909b5260a089019a8b5289548087018b55998d529b8b902088516006909a0201988955915193880180546001600160a01b031916949093169390931790915551908501559051600384015594519482019490945590518051919261247e92600585019290910190613215565b5050505b61248c8383612693565b6000805b6000858152600860205260409020548110156125695760008581526008602052604090208054309190839081106124d757634e487b7160e01b600052603260045260246000fd5b60009182526020909120600290910201546001600160a01b0316141561255757600085815260086020526040902080548591908390811061252857634e487b7160e01b600052603260045260246000fd5b906000526020600020906002020160010160008282546125489190613c29565b90915550600192506125699050565b8061256181613d0f565b915050612490565b50806125ce5760008481526008602090815260408083208151808301909252308252818301878152815460018082018455928652939094209151600290930290910180546001600160a01b0319166001600160a01b0390931692909217825591519101555b6000805b60008681526009602052604090206005015481101561265557600086815260096020526040902060050180543091908390811061261f57634e487b7160e01b600052603260045260246000fd5b6000918252602090912001546001600160a01b031614156126435760019150612655565b8061264d81613d0f565b9150506125d2565b5080610a2b5760008581526009602090815260408220600501805460018101825590835291200180546001600160a01b031916301790555050505050565b60005b600083815260086020526040902054811015610c0b5760008381526008602052604090208054339190839081106126dd57634e487b7160e01b600052603260045260246000fd5b60009182526020909120600290910201546001600160a01b03161415612a7d57600083815260086020526040902080548391908390811061272e57634e487b7160e01b600052603260045260246000fd5b9060005260206000209060020201600101600082825461274e9190613c60565b9091555050600083815260086020526040902080548290811061278157634e487b7160e01b600052603260045260246000fd5b90600052602060002090600202016001015460001415610c0b576000805b60008581526009602052604090206005015481101561286a5760008581526008602052604090208054849081106127e657634e487b7160e01b600052603260045260246000fd5b600091825260208083206002909202909101548783526009909152604090912060050180546001600160a01b03909216918390811061283557634e487b7160e01b600052603260045260246000fd5b6000918252602090912001546001600160a01b031614156128585780915061286a565b8061286281613d0f565b91505061279f565b506000848152600960205260409020600501805461288a90600190613c60565b815481106128a857634e487b7160e01b600052603260045260246000fd5b60009182526020808320909101548683526009909152604090912060050180546001600160a01b0390921691839081106128f257634e487b7160e01b600052603260045260246000fd5b600091825260208083209190910180546001600160a01b0319166001600160a01b03949094169390931790925585815260099091526040902060050180548061294b57634e487b7160e01b600052603160045260246000fd5b60008281526020808220830160001990810180546001600160a01b03191690559092019092558582526008905260409020805461298a90600190613c60565b815481106129a857634e487b7160e01b600052603260045260246000fd5b90600052602060002090600202016008600086815260200190815260200160002083815481106129e857634e487b7160e01b600052603260045260246000fd5b60009182526020808320845460029093020180546001600160a01b0319166001600160a01b039093169290921782556001938401549390910192909255858152600890915260409020805480612a4e57634e487b7160e01b600052603160045260246000fd5b60008281526020812060026000199093019283020180546001600160a01b031916815560010155905550505050565b80612a8781613d0f565b915050612696565b816001600160a01b0316836001600160a01b03161415612b035760405162461bcd60e51b815260206004820152602960248201527f455243313135353a2073657474696e6720617070726f76616c20737461747573604482015268103337b91039b2b63360b91b6064820152608401610632565b6001600160a01b03838116600081815260016020908152604080832094871680845294825291829020805460ff191686151590811790915591519182527f17307eab39ab6107e8899845ad3d59bd9653f200f220920489ca2b5937696c31910160405180910390a3505050565b60606000612b7d83612fdb565b600101905060008167ffffffffffffffff811115612bab57634e487b7160e01b600052604160045260246000fd5b6040519080825280601f01601f191660200182016040528015612bd5576020820181803683370190505b5090508181016020015b600019016f181899199a1a9b1b9c1cb0b131b232b360811b600a86061a8153600a8504945084612c0e57610d6a565b612bdf565b6001600160a01b038416612c735760405162461bcd60e51b815260206004820152602160248201527f455243313135353a206d696e7420746f20746865207a65726f206164647265736044820152607360f81b6064820152608401610632565b336000612c7f856130b3565b90506000612c8c856130b3565b90506000868152602081815260408083206001600160a01b038b16845290915281208054879290612cbe908490613c29565b909155505060408051878152602081018790526001600160a01b03808a1692600092918716917fc3d58168c5ae7397731d063d5bbf3d657854427343f4c083240f7aacaa2d0f62910160405180910390a4612d1e8360008989898961310c565b50505050505050565b6000828152600b602090815260409091208251610c0b9284019061327a565b6001600160a01b038416612d6c5760405162461bcd60e51b815260040161063290613b63565b336000612d78856130b3565b90506000612d85856130b3565b90506000868152602081815260408083206001600160a01b038c16845290915290205485811015612dc85760405162461bcd60e51b815260040161063290613ba8565b6000878152602081815260408083206001600160a01b038d8116855292528083208985039055908a16825281208054889290612e05908490613c29565b909155505060408051888152602081018890526001600160a01b03808b16928c821692918816917fc3d58168c5ae7397731d063d5bbf3d657854427343f4c083240f7aacaa2d0f62910160405180910390a4612e65848a8a8a8a8a61310c565b505050505050505050565b6001600160a01b0384163b15611c825760405163bc197c8160e01b81526001600160a01b0385169063bc197c8190612eb490899089908890889088906004016138ef565b602060405180830381600087803b158015612ece57600080fd5b505af1925050508015612efe575060408051601f3d908101601f19168201909252612efb918101906136b6565b60015b612fab57612f0a613d56565b806308c379a01415612f445750612f1f613d6e565b80612f2a5750612f46565b8060405162461bcd60e51b81526004016106329190613a8c565b505b60405162461bcd60e51b815260206004820152603460248201527f455243313135353a207472616e7366657220746f206e6f6e2d455243313135356044820152732932b1b2b4bb32b91034b6b83632b6b2b73a32b960611b6064820152608401610632565b6001600160e01b0319811663bc197c8160e01b14612d1e5760405162461bcd60e51b815260040161063290613a9f565b60008072184f03e93ff9f4daa797ed6e38ed64bf6a1f0160401b831061301a5772184f03e93ff9f4daa797ed6e38ed64bf6a1f0160401b830492506040015b6d04ee2d6d415b85acef81000000008310613046576d04ee2d6d415b85acef8100000000830492506020015b662386f26fc10000831061306457662386f26fc10000830492506010015b6305f5e100831061307c576305f5e100830492506008015b612710831061309057612710830492506004015b606483106130a2576064830492506002015b600a831061067b5760010192915050565b604080516001808252818301909252606091600091906020808301908036833701905050905082816000815181106130fb57634e487b7160e01b600052603260045260246000fd5b602090810291909101015292915050565b6001600160a01b0384163b15611c825760405163f23a6e6160e01b81526001600160a01b0385169063f23a6e6190613150908990899088908890889060040161394d565b602060405180830381600087803b15801561316a57600080fd5b505af192505050801561319a575060408051601f3d908101601f19168201909252613197918101906136b6565b60015b6131a657612f0a613d56565b6001600160e01b0319811663f23a6e6160e01b14612d1e5760405162461bcd60e51b815260040161063290613a9f565b6040518060c001604052806000815260200160006001600160a01b03168152602001600081526020016000815260200160008152602001606081525090565b82805482825590600052602060002090810192821561326a579160200282015b8281111561326a57825182546001600160a01b0319166001600160a01b03909116178255602090920191600190910190613235565b506132769291506132ee565b5090565b82805461328690613ca7565b90600052602060002090601f0160209004810192826132a8576000855561326a565b82601f106132c157805160ff191683800117855561326a565b8280016001018555821561326a579182015b8281111561326a5782518255916020019190600101906132d3565b5b8082111561327657600081556001016132ef565b600067ffffffffffffffff83111561331d5761331d613d40565b604051613334601f8501601f191660200182613ce2565b80915083815284848401111561334957600080fd5b83836020830137600060208583010152509392505050565b80356001600160a01b038116811461337857600080fd5b919050565b600082601f83011261338d578081fd5b8135602061339a82613c05565b6040516133a78282613ce2565b8381528281019150858301600585901b870184018810156133c6578586fd5b855b858110156133e4578135845292840192908401906001016133c8565b5090979650505050505050565b600082601f830112613401578081fd5b61341083833560208501613303565b9392505050565b600060208284031215613428578081fd5b61341082613361565b60008060408385031215613443578081fd5b61344c83613361565b915061345a60208401613361565b90509250929050565b600080600080600060a0868803121561347a578081fd5b61348386613361565b945061349160208701613361565b9350604086013567ffffffffffffffff808211156134ad578283fd5b6134b989838a0161337d565b945060608801359150808211156134ce578283fd5b6134da89838a0161337d565b935060808801359150808211156134ef578283fd5b506134fc888289016133f1565b9150509295509295909350565b600080600080600060a08688031215613520578081fd5b61352986613361565b945061353760208701613361565b93506040860135925060608601359150608086013567ffffffffffffffff811115613560578182fd5b6134fc888289016133f1565b6000806040838503121561357e578182fd5b61358783613361565b91506020830135801515811461359b578182fd5b809150509250929050565b600080604083850312156135b8578182fd5b6135c183613361565b946020939093013593505050565b600080604083850312156135e1578182fd5b823567ffffffffffffffff808211156135f8578384fd5b818501915085601f83011261360b578384fd5b8135602061361882613c05565b6040516136258282613ce2565b8381528281019150858301600585901b870184018b1015613644578889fd5b8896505b8487101561366d5761365981613361565b835260019690960195918301918301613648565b5096505086013592505080821115613683578283fd5b506136908582860161337d565b9150509250929050565b6000602082840312156136ab578081fd5b813561341081613df8565b6000602082840312156136c7578081fd5b815161341081613df8565b6000806000606084860312156136e6578081fd5b833567ffffffffffffffff8111156136fc578182fd5b8401601f8101861361370c578182fd5b61371b86823560208401613303565b9660208601359650604090950135949350505050565b600060208284031215613742578081fd5b5035919050565b60008060006060848603121561375d578081fd5b8335925061376d60208501613361565b9150604084013590509250925092565b6000806040838503121561378f578182fd5b50508035926020909101359150565b6000815180845260208085019450808401835b838110156137cd578151875295820195908201906001016137b1565b509495945050505050565b600081518084526137f0816020860160208601613c77565b601f01601f19169290920160200192915050565b600060c083018251845260208084015160018060a01b038082168388015260408601516040880152606086015160608801526080860151608088015260a0860151915060c060a088015283825180865260e08901915084840195508693505b8084101561388557855183168252948401946001939093019290840190613863565b50979650505050505050565b7f50726963652073686f756c64206265206d6f7265207468616e20302e3030392081526f032ba3416103cb7ba9039b2b73a1d10160851b6020820152600082516138e2816030850160208701613c77565b9190910160300192915050565b6001600160a01b0386811682528516602082015260a06040820181905260009061391b9083018661379e565b828103606084015261392d818661379e565b9050828103608084015261394181856137d8565b98975050505050505050565b6001600160a01b03868116825285166020820152604081018490526060810183905260a060808201819052600090613987908301846137d8565b979650505050505050565b602080825282518282018190526000919060409081850190868401855b828110156139dd57815180516001600160a01b031685528601518685015292840192908501906001016139af565b5091979650505050505050565b6000602080830181845280855180835260408601915060408160051b8701019250838701855b82811015613a3e57603f19888603018452613a2c858351613804565b94509285019290850190600101613a10565b5092979650505050505050565b602081526000613410602083018461379e565b604081526000613a71604083018561379e565b8281036020840152613a83818561379e565b95945050505050565b60208152600061341060208301846137d8565b60208082526028908201527f455243313135353a204552433131353552656365697665722072656a656374656040820152676420746f6b656e7360c01b606082015260800190565b602080825260149082015273496e73756666696369656e742062616c616e636560601b604082015260600190565b6020808252602e908201527f455243313135353a2063616c6c6572206973206e6f7420746f6b656e206f776e60408201526d195c881bdc88185c1c1c9bdd995960921b606082015260800190565b60208082526025908201527f455243313135353a207472616e7366657220746f20746865207a65726f206164604082015264647265737360d81b606082015260800190565b6020808252602a908201527f455243313135353a20696e73756666696369656e742062616c616e636520666f60408201526939103a3930b739b332b960b11b606082015260800190565b6020815260006134106020830184613804565b600067ffffffffffffffff821115613c1f57613c1f613d40565b5060051b60200190565b60008219821115613c3c57613c3c613d2a565b500190565b6000816000190483118215151615613c5b57613c5b613d2a565b500290565b600082821015613c7257613c72613d2a565b500390565b60005b83811015613c92578181015183820152602001613c7a565b83811115613ca1576000848401525b50505050565b600181811c90821680613cbb57607f821691505b60208210811415613cdc57634e487b7160e01b600052602260045260246000fd5b50919050565b601f8201601f1916810167ffffffffffffffff81118282101715613d0857613d08613d40565b6040525050565b6000600019821415613d2357613d23613d2a565b5060010190565b634e487b7160e01b600052601160045260246000fd5b634e487b7160e01b600052604160045260246000fd5b600060033d1115613d6b57600481823e5160e01c5b90565b600060443d1015613d7c5790565b6040516003193d81016004833e81513d67ffffffffffffffff8160248401118184111715613dac57505050505090565b8285019150815181811115613dc45750505050505090565b843d8701016020828501011115613dde5750505050505090565b613ded60208286010187613ce2565b509095945050505050565b6001600160e01b031981168114613e0e57600080fd5b5056fea26469706673582212203653bcebcd6964562cb931f77be3a0b2ebd0925bef50602c19a61280156c0a6d64736f6c63430008040033",
  "linkReferences": {},
  "deployedLinkReferences": {}
}