{
  "_format": "hh-sol-artifact-1",
  "contractName": "FractionalMarket",
  "sourceName": "contracts/FractionalMarket.sol",
  "abi": [
    {
      "inputs": [],
      "stateMutability": "nonpayable",
      "type": "constructor"
    },
    {
      "anonymous": false,
      "inputs": [
        {
          "indexed": true,
          "internalType": "address",
          "name": "account",
          "type": "address"
        },
        {
          "indexed": true,
          "internalType": "address",
          "name": "operator",
          "type": "address"
        },
        {
          "indexed": false,
          "internalType": "bool",
          "name": "approved",
          "type": "bool"
        }
      ],
      "name": "ApprovalForAll",
      "type": "event"
    },
    {
      "anonymous": false,
      "inputs": [
        {
          "indexed": false,
          "internalType": "uint256",
          "name": "tokenId",
          "type": "uint256"
        },
        {
          "indexed": false,
          "internalType": "uint256",
          "name": "totalSupply",
          "type": "uint256"
        }
      ],
      "name": "TokenCreated",
      "type": "event"
    },
    {
      "anonymous": false,
      "inputs": [
        {
          "indexed": false,
          "internalType": "uint256",
          "name": "tokenId",
          "type": "uint256"
        }
      ],
      "name": "TokenListed",
      "type": "event"
    },
    {
      "anonymous": false,
      "inputs": [
        {
          "indexed": true,
          "internalType": "uint256",
          "name": "tokenId",
          "type": "uint256"
        },
        {
          "indexed": false,
          "internalType": "address",
          "name": "owner",
          "type": "address"
        },
        {
          "indexed": false,
          "internalType": "address",
          "name": "seller",
          "type": "address"
        },
        {
          "indexed": false,
          "internalType": "uint256",
          "name": "price",
          "type": "uint256"
        }
      ],
      "name": "TokenListedSuccess",
      "type": "event"
    },
    {
      "anonymous": false,
      "inputs": [
        {
          "indexed": false,
          "internalType": "uint256",
          "name": "tokenId",
          "type": "uint256"
        },
        {
          "indexed": false,
          "internalType": "address",
          "name": "from",
          "type": "address"
        },
        {
          "indexed": false,
          "internalType": "address",
          "name": "to",
          "type": "address"
        },
        {
          "indexed": false,
          "internalType": "uint256",
          "name": "amount",
          "type": "uint256"
        }
      ],
      "name": "TokenTransferred",
      "type": "event"
    },
    {
      "anonymous": false,
      "inputs": [
        {
          "indexed": true,
          "internalType": "address",
          "name": "operator",
          "type": "address"
        },
        {
          "indexed": true,
          "internalType": "address",
          "name": "from",
          "type": "address"
        },
        {
          "indexed": true,
          "internalType": "address",
          "name": "to",
          "type": "address"
        },
        {
          "indexed": false,
          "internalType": "uint256[]",
          "name": "ids",
          "type": "uint256[]"
        },
        {
          "indexed": false,
          "internalType": "uint256[]",
          "name": "values",
          "type": "uint256[]"
        }
      ],
      "name": "TransferBatch",
      "type": "event"
    },
    {
      "anonymous": false,
      "inputs": [
        {
          "indexed": true,
          "internalType": "address",
          "name": "operator",
          "type": "address"
        },
        {
          "indexed": true,
          "internalType": "address",
          "name": "from",
          "type": "address"
        },
        {
          "indexed": true,
          "internalType": "address",
          "name": "to",
          "type": "address"
        },
        {
          "indexed": false,
          "internalType": "uint256",
          "name": "id",
          "type": "uint256"
        },
        {
          "indexed": false,
          "internalType": "uint256",
          "name": "value",
          "type": "uint256"
        }
      ],
      "name": "TransferSingle",
      "type": "event"
    },
    {
      "anonymous": false,
      "inputs": [
        {
          "indexed": false,
          "internalType": "string",
          "name": "value",
          "type": "string"
        },
        {
          "indexed": true,
          "internalType": "uint256",
          "name": "id",
          "type": "uint256"
        }
      ],
      "name": "URI",
      "type": "event"
    },
    {
      "inputs": [
        {
          "internalType": "address",
          "name": "account",
          "type": "address"
        },
        {
          "internalType": "uint256",
          "name": "id",
          "type": "uint256"
        }
      ],
      "name": "balanceOf",
      "outputs": [
        {
          "internalType": "uint256",
          "name": "",
          "type": "uint256"
        }
      ],
      "stateMutability": "view",
      "type": "function"
    },
    {
      "inputs": [
        {
          "internalType": "address[]",
          "name": "accounts",
          "type": "address[]"
        },
        {
          "internalType": "uint256[]",
          "name": "ids",
          "type": "uint256[]"
        }
      ],
      "name": "balanceOfBatch",
      "outputs": [
        {
          "internalType": "uint256[]",
          "name": "",
          "type": "uint256[]"
        }
      ],
      "stateMutability": "view",
      "type": "function"
    },
    {
      "inputs": [
        {
          "internalType": "uint256",
          "name": "_tokenId",
          "type": "uint256"
        },
        {
          "internalType": "uint256",
          "name": "_supply",
          "type": "uint256"
        }
      ],
      "name": "bringToMarket",
      "outputs": [],
      "stateMutability": "payable",
      "type": "function"
    },
    {
      "inputs": [
        {
          "internalType": "string",
          "name": "tokenURI",
          "type": "string"
        },
        {
          "internalType": "uint256",
          "name": "_totalSupply",
          "type": "uint256"
        },
        {
          "internalType": "uint256",
          "name": "_price",
          "type": "uint256"
        }
      ],
      "name": "createToken",
      "outputs": [
        {
          "internalType": "uint256",
          "name": "",
          "type": "uint256"
        }
      ],
      "stateMutability": "payable",
      "type": "function"
    },
    {
      "inputs": [
        {
          "internalType": "uint256",
          "name": "_tokenId",
          "type": "uint256"
        },
        {
          "internalType": "uint256",
          "name": "_amount",
          "type": "uint256"
        }
      ],
      "name": "executeSale",
      "outputs": [],
      "stateMutability": "payable",
      "type": "function"
    },
    {
      "inputs": [],
      "name": "getAllTokens",
      "outputs": [
        {
          "components": [
            {
              "internalType": "uint256",
              "name": "token_id",
              "type": "uint256"
            },
            {
              "internalType": "address",
              "name": "creator",
              "type": "address"
            },
            {
              "internalType": "uint256",
              "name": "price",
              "type": "uint256"
            },
            {
              "internalType": "uint256",
              "name": "balance",
              "type": "uint256"
            },
            {
              "internalType": "uint256",
              "name": "total_supply",
              "type": "uint256"
            },
            {
              "internalType": "address[]",
              "name": "holders",
              "type": "address[]"
            }
          ],
          "internalType": "struct FractionalMarket.tokens[]",
          "name": "",
          "type": "tuple[]"
        }
      ],
      "stateMutability": "view",
      "type": "function"
    },
    {
      "inputs": [
        {
          "internalType": "uint256",
          "name": "_id",
          "type": "uint256"
        }
      ],
      "name": "getHoldersWithBalances",
      "outputs": [
        {
          "components": [
            {
              "internalType": "address",
              "name": "holder",
              "type": "address"
            },
            {
              "internalType": "uint256",
              "name": "holding",
              "type": "uint256"
            }
          ],
          "internalType": "struct FractionalMarket.tokenHolders[]",
          "name": "",
          "type": "tuple[]"
        }
      ],
      "stateMutability": "view",
      "type": "function"
    },
    {
      "inputs": [],
      "name": "getListPrice",
      "outputs": [
        {
          "internalType": "uint256",
          "name": "",
          "type": "uint256"
        }
      ],
      "stateMutability": "view",
      "type": "function"
    },
    {
      "inputs": [
        {
          "internalType": "uint256",
          "name": "_tokenId",
          "type": "uint256"
        }
      ],
      "name": "getTokenTotalSupply",
      "outputs": [
        {
          "internalType": "uint256",
          "name": "",
          "type": "uint256"
        }
      ],
      "stateMutability": "view",
      "type": "function"
    },
    {
      "inputs": [
        {
          "internalType": "uint256",
          "name": "_id",
          "type": "uint256"
        }
      ],
      "name": "getTokens",
      "outputs": [
        {
          "components": [
            {
              "internalType": "uint256",
              "name": "token_id",
              "type": "uint256"
            },
            {
              "internalType": "address",
              "name": "creator",
              "type": "address"
            },
            {
              "internalType": "uint256",
              "name": "price",
              "type": "uint256"
            },
            {
              "internalType": "uint256",
              "name": "balance",
              "type": "uint256"
            },
            {
              "internalType": "uint256",
              "name": "total_supply",
              "type": "uint256"
            },
            {
              "internalType": "address[]",
              "name": "holders",
              "type": "address[]"
            }
          ],
          "internalType": "struct FractionalMarket.tokens",
          "name": "",
          "type": "tuple"
        }
      ],
      "stateMutability": "view",
      "type": "function"
    },
    {
      "inputs": [
        {
          "internalType": "address",
          "name": "_of",
          "type": "address"
        }
      ],
      "name": "getTokensOf",
      "outputs": [
        {
          "components": [
            {
              "internalType": "uint256",
              "name": "token_id",
              "type": "uint256"
            },
            {
              "internalType": "address",
              "name": "creator",
              "type": "address"
            },
            {
              "internalType": "uint256",
              "name": "price",
              "type": "uint256"
            },
            {
              "internalType": "uint256",
              "name": "balance",
              "type": "uint256"
            },
            {
              "internalType": "uint256",
              "name": "total_supply",
              "type": "uint256"
            },
            {
              "internalType": "address[]",
              "name": "holders",
              "type": "address[]"
            }
          ],
          "internalType": "struct FractionalMarket.tokens[]",
          "name": "",
          "type": "tuple[]"
        }
      ],
      "stateMutability": "view",
      "type": "function"
    },
    {
      "inputs": [
        {
          "internalType": "uint256",
          "name": "",
          "type": "uint256"
        },
        {
          "internalType": "uint256",
          "name": "",
          "type": "uint256"
        }
      ],
      "name": "holdersWithBalances",
      "outputs": [
        {
          "internalType": "address",
          "name": "holder",
          "type": "address"
        },
        {
          "internalType": "uint256",
          "name": "holding",
          "type": "uint256"
        }
      ],
      "stateMutability": "view",
      "type": "function"
    },
    {
      "inputs": [
        {
          "internalType": "address",
          "name": "account",
          "type": "address"
        },
        {
          "internalType": "address",
          "name": "operator",
          "type": "address"
        }
      ],
      "name": "isApprovedForAll",
      "outputs": [
        {
          "internalType": "bool",
          "name": "",
          "type": "bool"
        }
      ],
      "stateMutability": "view",
      "type": "function"
    },
    {
      "inputs": [
        {
          "internalType": "address",
          "name": "",
          "type": "address"
        },
        {
          "internalType": "address",
          "name": "",
          "type": "address"
        },
        {
          "internalType": "uint256[]",
          "name": "",
          "type": "uint256[]"
        },
        {
          "internalType": "uint256[]",
          "name": "",
          "type": "uint256[]"
        },
        {
          "internalType": "bytes",
          "name": "",
          "type": "bytes"
        }
      ],
      "name": "onERC1155BatchReceived",
      "outputs": [
        {
          "internalType": "bytes4",
          "name": "",
          "type": "bytes4"
        }
      ],
      "stateMutability": "nonpayable",
      "type": "function"
    },
    {
      "inputs": [
        {
          "internalType": "address",
          "name": "",
          "type": "address"
        },
        {
          "internalType": "address",
          "name": "",
          "type": "address"
        },
        {
          "internalType": "uint256",
          "name": "",
          "type": "uint256"
        },
        {
          "internalType": "uint256",
          "name": "",
          "type": "uint256"
        },
        {
          "internalType": "bytes",
          "name": "",
          "type": "bytes"
        }
      ],
      "name": "onERC1155Received",
      "outputs": [
        {
          "internalType": "bytes4",
          "name": "",
          "type": "bytes4"
        }
      ],
      "stateMutability": "nonpayable",
      "type": "function"
    },
    {
      "inputs": [
        {
          "internalType": "address",
          "name": "from",
          "type": "address"
        },
        {
          "internalType": "address",
          "name": "to",
          "type": "address"
        },
        {
          "internalType": "uint256[]",
          "name": "ids",
          "type": "uint256[]"
        },
        {
          "internalType": "uint256[]",
          "name": "amounts",
          "type": "uint256[]"
        },
        {
          "internalType": "bytes",
          "name": "data",
          "type": "bytes"
        }
      ],
      "name": "safeBatchTransferFrom",
      "outputs": [],
      "stateMutability": "nonpayable",
      "type": "function"
    },
    {
      "inputs": [
        {
          "internalType": "address",
          "name": "from",
          "type": "address"
        },
        {
          "internalType": "address",
          "name": "to",
          "type": "address"
        },
        {
          "internalType": "uint256",
          "name": "id",
          "type": "uint256"
        },
        {
          "internalType": "uint256",
          "name": "amount",
          "type": "uint256"
        },
        {
          "internalType": "bytes",
          "name": "data",
          "type": "bytes"
        }
      ],
      "name": "safeTransferFrom",
      "outputs": [],
      "stateMutability": "nonpayable",
      "type": "function"
    },
    {
      "inputs": [
        {
          "internalType": "address",
          "name": "operator",
          "type": "address"
        },
        {
          "internalType": "bool",
          "name": "approved",
          "type": "bool"
        }
      ],
      "name": "setApprovalForAll",
      "outputs": [],
      "stateMutability": "nonpayable",
      "type": "function"
    },
    {
      "inputs": [
        {
          "internalType": "bytes4",
          "name": "interfaceId",
          "type": "bytes4"
        }
      ],
      "name": "supportsInterface",
      "outputs": [
        {
          "internalType": "bool",
          "name": "",
          "type": "bool"
        }
      ],
      "stateMutability": "view",
      "type": "function"
    },
    {
      "inputs": [
        {
          "internalType": "uint256",
          "name": "",
          "type": "uint256"
        }
      ],
      "name": "tokenURIs",
      "outputs": [
        {
          "internalType": "string",
          "name": "",
          "type": "string"
        }
      ],
      "stateMutability": "view",
      "type": "function"
    },
    {
      "inputs": [
        {
          "internalType": "uint256",
          "name": "",
          "type": "uint256"
        }
      ],
      "name": "tokensCreated",
      "outputs": [
        {
          "internalType": "uint256",
          "name": "token_id",
          "type": "uint256"
        },
        {
          "internalType": "address",
          "name": "creator",
          "type": "address"
        },
        {
          "internalType": "uint256",
          "name": "price",
          "type": "uint256"
        },
        {
          "internalType": "uint256",
          "name": "balance",
          "type": "uint256"
        },
        {
          "internalType": "uint256",
          "name": "total_supply",
          "type": "uint256"
        }
      ],
      "stateMutability": "view",
      "type": "function"
    },
    {
      "inputs": [
        {
          "internalType": "address",
          "name": "",
          "type": "address"
        },
        {
          "internalType": "uint256",
          "name": "",
          "type": "uint256"
        }
      ],
      "name": "tokensOf",
      "outputs": [
        {
          "internalType": "uint256",
          "name": "token_id",
          "type": "uint256"
        },
        {
          "internalType": "address",
          "name": "creator",
          "type": "address"
        },
        {
          "internalType": "uint256",
          "name": "price",
          "type": "uint256"
        },
        {
          "internalType": "uint256",
          "name": "balance",
          "type": "uint256"
        },
        {
          "internalType": "uint256",
          "name": "total_supply",
          "type": "uint256"
        }
      ],
      "stateMutability": "view",
      "type": "function"
    },
    {
      "inputs": [
        {
          "internalType": "uint256",
          "name": "",
          "type": "uint256"
        }
      ],
      "name": "totalSupply",
      "outputs": [
        {
          "internalType": "uint256",
          "name": "",
          "type": "uint256"
        }
      ],
      "stateMutability": "view",
      "type": "function"
    },
    {
      "inputs": [
        {
          "internalType": "uint256",
          "name": "_tokenId",
          "type": "uint256"
        },
        {
          "internalType": "address",
          "name": "_to",
          "type": "address"
        },
        {
          "internalType": "uint256",
          "name": "_amount",
          "type": "uint256"
        }
      ],
      "name": "transferFraction",
      "outputs": [],
      "stateMutability": "payable",
      "type": "function"
    },
    {
      "inputs": [
        {
          "internalType": "uint256",
          "name": "_listPrice",
          "type": "uint256"
        }
      ],
      "name": "updateListPrice",
      "outputs": [],
      "stateMutability": "payable",
      "type": "function"
    },
    {
      "inputs": [
        {
          "internalType": "uint256",
          "name": "tokenId",
          "type": "uint256"
        }
      ],
      "name": "uri",
      "outputs": [
        {
          "internalType": "string",
          "name": "",
          "type": "string"
        }
      ],
      "stateMutability": "view",
      "type": "function"
    }
  ],
  "bytecode": "0x6080604052662386f26fc100006006553480156200001c57600080fd5b5060408051808201909152601081526f119c9858dd1a5bdb985b13585c9ad95d60821b60208201526200004f8162000068565b50600580546001600160a01b0319163317905562000164565b80516200007d90600290602084019062000081565b5050565b8280546200008f9062000127565b90600052602060002090601f016020900481019282620000b35760008555620000fe565b82601f10620000ce57805160ff1916838001178555620000fe565b82800160010185558215620000fe579182015b82811115620000fe578251825591602001919060010190620000e1565b506200010c92915062000110565b5090565b5b808211156200010c576000815560010162000111565b600181811c908216806200013c57607f821691505b602082108114156200015e57634e487b7160e01b600052602260045260246000fd5b50919050565b6139f480620001746000396000f3fe6080604052600436106101805760003560e01c80636c8b703f116100d1578063c322579c1161008a578063e985e9c511610064578063e985e9c514610509578063f23a6e6114610552578063f242432a1461057e578063f6d43e951461059e57600080fd5b8063c322579c1461049c578063cc86baad146104af578063d3c9cc26146104dc57600080fd5b80636c8b703f146103c457806394e53ea7146103e4578063a22cb465146103f7578063bc197c8114610417578063bd85b0391461045c578063bec2a7c51461048957600080fd5b80632eb2c2d61161013e5780634437b60b116101185780634437b60b1461035c5780634e1273f41461036f57806368f1945f1461039c5780636a7302c2146103b157600080fd5b80632eb2c2d61461029657806338a3dbae146102b857806341abf5711461030857600080fd5b8062fdd58e1461018557806301ffc9a7146101b857806307f950f1146101e85780630986b210146102275780630e89341c146102545780632a5c792a14610281575b600080fd5b34801561019157600080fd5b506101a56101a03660046131c2565b6105cb565b6040519081526020015b60405180910390f35b3480156101c457600080fd5b506101d86101d33660046132b6565b610661565b60405190151581526020016101af565b3480156101f457600080fd5b50610208610203366004613399565b610681565b604080516001600160a01b0390931683526020830191909152016101af565b34801561023357600080fd5b50610247610242366004613033565b6106c7565b6040516101af91906135c7565b34801561026057600080fd5b5061027461026f36600461334d565b6107d1565b6040516101af9190613669565b34801561028d57600080fd5b50610247610873565b3480156102a257600080fd5b506102b66102b136600461307f565b6109e6565b005b3480156102c457600080fd5b506102d86102d33660046131c2565b610a32565b604080519586526001600160a01b039094166020860152928401919091526060830152608082015260a0016101af565b34801561031457600080fd5b506102d861032336600461334d565b6009602052600090815260409020805460018201546002830154600384015460049094015492936001600160a01b039092169290919085565b6102b661036a366004613399565b610a8a565b34801561037b57600080fd5b5061038f61038a3660046131eb565b61116f565b6040516101af9190613628565b3480156103a857600080fd5b506006546101a5565b6102b66103bf366004613399565b6112d1565b3480156103d057600080fd5b506102746103df36600461334d565b6118b6565b6102b66103f2366004613365565b611950565b34801561040357600080fd5b506102b6610412366004613188565b611fe5565b34801561042357600080fd5b5061044361043236600461307f565b63bc197c8160e01b95945050505050565b6040516001600160e01b031990911681526020016101af565b34801561046857600080fd5b506101a561047736600461334d565b60076020526000908152604090205481565b6101a56104973660046132ee565b611ff4565b6102b66104aa36600461334d565b6123d0565b3480156104bb57600080fd5b506101a56104ca36600461334d565b60009081526007602052604090205490565b3480156104e857600080fd5b506104fc6104f736600461334d565b61243b565b6040516101af91906137cf565b34801561051557600080fd5b506101d861052436600461304d565b6001600160a01b03918216600090815260016020908152604080832093909416825291909152205460ff1690565b34801561055e57600080fd5b5061044361056d366004613125565b63f23a6e6160e01b95945050505050565b34801561058a57600080fd5b506102b6610599366004613125565b6124f9565b3480156105aa57600080fd5b506105be6105b936600461334d565b61253e565b6040516101af919061356f565b60006001600160a01b03831661063b5760405162461bcd60e51b815260206004820152602a60248201527f455243313135353a2061646472657373207a65726f206973206e6f742061207660448201526930b634b21037bbb732b960b11b60648201526084015b60405180910390fd5b506000908152602081815260408083206001600160a01b03949094168352929052205490565b600061066c826125bb565b8061067b575061067b8261260b565b92915050565b6008602052816000526040600020818154811061069d57600080fd5b6000918252602090912060029091020180546001909101546001600160a01b039091169250905082565b6001600160a01b0381166000908152600a60209081526040808320805482518185028101850190935280835260609492939192909184015b828210156107c65760008481526020908190206040805160c081018252600686029092018054835260018101546001600160a01b03168385015260028101548383015260038101546060840152600481015460808401526005810180548351818702810187019094528084529394919360a0860193928301828280156107ae57602002820191906000526020600020905b81546001600160a01b03168152600190910190602001808311610790575b505050505081525050815260200190600101906106ff565b505050509050919050565b6000818152600b602052604090208054606091906107ee90613854565b80601f016020809104026020016040519081016040528092919081815260200182805461081a90613854565b80156108675780601f1061083c57610100808354040283529160200191610867565b820191906000526020600020905b81548152906001019060200180831161084a57829003601f168201915b50505050509050919050565b6060600061088060035490565b905060008167ffffffffffffffff8111156108ab57634e487b7160e01b600052604160045260246000fd5b6040519080825280602002602001820160405280156108e457816020015b6108d1612df2565b8152602001906001900390816108c95790505b50905060005b828110156109df57600081815260096020908152604091829020825160c0810184528154815260018201546001600160a01b03168184015260028201548185015260038201546060820152600482015460808201526005820180548551818602810186019096528086529194929360a0860193929083018282801561099857602002820191906000526020600020905b81546001600160a01b0316815260019091019060200180831161097a575b5050505050815250508282815181106109c157634e487b7160e01b600052603260045260246000fd5b602002602001018190525080806109d7906138bc565b9150506108ea565b5092915050565b6001600160a01b038516331480610a025750610a028533610524565b610a1e5760405162461bcd60e51b8152600401610632906136f2565b610a2b8585858585612630565b5050505050565b600a6020528160005260406000208181548110610a4e57600080fd5b6000918252602090912060069091020180546001820154600283015460038401546004909401549295506001600160a01b039091169350919085565b60405163a22cb46560e01b815233600482015260016024820152309063a22cb46590604401600060405180830381600087803b158015610ac957600080fd5b505af1158015610add573d6000803e3d6000fd5b5050505080610aec30846105cb565b1015610b0a5760405162461bcd60e51b8152600401610632906136c4565b600082815260096020526040902060020154610b26828261381e565b341015610b9d576040805162461bcd60e51b81526020600482015260248101919091527f506c65617365207375626d6974207468652061736b696e67207072696365206960448201527f6e206f7264657220746f20636f6d706c657465207468652070757263686173656064820152608401610632565b610bb930338585604051806020016040528060008152506124f9565b610bc7600480546001019055565b6005546040516001600160a01b03909116903480156108fc02916000818181858888f19350505050158015610c00573d6000803e3d6000fd5b5060005b306000908152600a6020526040902054811015610cd457306000908152600a60205260409020805485919083908110610c4d57634e487b7160e01b600052603260045260246000fd5b9060005260206000209060060201600001541415610cc257306000908152600a60205260409020805484919083908110610c9757634e487b7160e01b600052603260045260246000fd5b90600052602060002090600602016003016000828254610cb7919061383d565b90915550610cd49050565b80610ccc816138bc565b915050610c04565b506000805b336000908152600a6020526040902054811015610dad57336000908152600a60205260409020805486919083908110610d2257634e487b7160e01b600052603260045260246000fd5b9060005260206000209060060201600001541415610d9b57336000908152600a60205260409020805485919083908110610d6c57634e487b7160e01b600052603260045260246000fd5b90600052602060002090600602016003016000828254610d8c9190613806565b9091555060019250610dad9050565b80610da5816138bc565b915050610cd9565b5080610e8d57336000908152600a60209081526040808320815160c08101835288815288855260098085528386206001808201546001600160a01b03908116858901908152600280850154878a01908152606088018f8152968b52600495860154608089019081528a518d8152808d01909b5260a089019a8b5289548087018b55998d529b8b902088516006909a0201988955915193880180546001600160a01b0319169490931693909317909155519085015590516003840155945194820194909455905180519192610e8992600585019290910190612e31565b5050505b60005b600085815260086020526040902054811015610f65576000858152600860205260409020805430919083908110610ed757634e487b7160e01b600052603260045260246000fd5b60009182526020909120600290910201546001600160a01b03161415610f53576000858152600860205260409020805485919083908110610f2857634e487b7160e01b600052603260045260246000fd5b90600052602060002090600202016001016000828254610f48919061383d565b90915550610f659050565b80610f5d816138bc565b915050610e90565b506000805b600086815260086020526040902054811015611043576000868152600860205260409020805433919083908110610fb157634e487b7160e01b600052603260045260246000fd5b60009182526020909120600290910201546001600160a01b0316141561103157600086815260086020526040902080548691908390811061100257634e487b7160e01b600052603260045260246000fd5b906000526020600020906002020160010160008282546110229190613806565b90915550600192506110439050565b8061103b816138bc565b915050610f6a565b50806110a85760008581526008602090815260408083208151808301909252338252818301888152815460018082018455928652939094209151600290930290910180546001600160a01b0319166001600160a01b0390931692909217825591519101555b6000805b60008781526009602052604090206005015481101561112f5760008781526009602052604090206005018054339190839081106110f957634e487b7160e01b600052603260045260246000fd5b6000918252602090912001546001600160a01b0316141561111d576001915061112f565b80611127816138bc565b9150506110ac565b50806111675760008681526009602090815260408220600501805460018101825590835291200180546001600160a01b031916331790555b505050505050565b606081518351146111d45760405162461bcd60e51b815260206004820152602960248201527f455243313135353a206163636f756e747320616e6420696473206c656e677468604482015268040dad2e6dac2e8c6d60bb1b6064820152608401610632565b6000835167ffffffffffffffff8111156111fe57634e487b7160e01b600052604160045260246000fd5b604051908082528060200260200182016040528015611227578160200160208202803683370190505b50905060005b84518110156112c95761128e85828151811061125957634e487b7160e01b600052603260045260246000fd5b602002602001015185838151811061128157634e487b7160e01b600052603260045260246000fd5b60200260200101516105cb565b8282815181106112ae57634e487b7160e01b600052603260045260246000fd5b60209081029190910101526112c2816138bc565b905061122d565b509392505050565b806112dc33846105cb565b10156112fa5760405162461bcd60e51b8152600401610632906136c4565b61131633308484604051806020016040528060008152506124f9565b60005b336000908152600a60205260409020548110156113e957336000908152600a6020526040902080548491908390811061136257634e487b7160e01b600052603260045260246000fd5b90600052602060002090600602016000015414156113d757336000908152600a602052604090208054839190839081106113ac57634e487b7160e01b600052603260045260246000fd5b906000526020600020906006020160030160008282546113cc919061383d565b909155506113e99050565b806113e1816138bc565b915050611319565b506000805b306000908152600a60205260409020548110156114c257306000908152600a6020526040902080548591908390811061143757634e487b7160e01b600052603260045260246000fd5b90600052602060002090600602016000015414156114b057306000908152600a6020526040902080548491908390811061148157634e487b7160e01b600052603260045260246000fd5b906000526020600020906006020160030160008282546114a19190613806565b90915550600192506114c29050565b806114ba816138bc565b9150506113ee565b50806115a257306000908152600a60209081526040808320815160c08101835287815287855260098085528386206001808201546001600160a01b03908116858901908152600280850154878a01908152606088018e8152968b52600495860154608089019081528a518d8152808d01909b5260a089019a8b5289548087018b55998d529b8b902088516006909a0201988955915193880180546001600160a01b031916949093169390931790915551908501559051600384015594519482019490945590518051919261159e92600585019290910190612e31565b5050505b60005b60008481526008602052604090205481101561167a5760008481526008602052604090208054339190839081106115ec57634e487b7160e01b600052603260045260246000fd5b60009182526020909120600290910201546001600160a01b0316141561166857600084815260086020526040902080548491908390811061163d57634e487b7160e01b600052603260045260246000fd5b9060005260206000209060020201600101600082825461165d919061383d565b9091555061167a9050565b80611672816138bc565b9150506115a5565b506000805b6000858152600860205260409020548110156117585760008581526008602052604090208054309190839081106116c657634e487b7160e01b600052603260045260246000fd5b60009182526020909120600290910201546001600160a01b0316141561174657600085815260086020526040902080548591908390811061171757634e487b7160e01b600052603260045260246000fd5b906000526020600020906002020160010160008282546117379190613806565b90915550600192506117589050565b80611750816138bc565b91505061167f565b50806117bd5760008481526008602090815260408083208151808301909252308252818301878152815460018082018455928652939094209151600290930290910180546001600160a01b0319166001600160a01b0390931692909217825591519101555b6000805b60008681526009602052604090206005015481101561184457600086815260096020526040902060050180543091908390811061180e57634e487b7160e01b600052603260045260246000fd5b6000918252602090912001546001600160a01b031614156118325760019150611844565b8061183c816138bc565b9150506117c1565b508061187c5760008581526009602090815260408220600501805460018101825590835291200180546001600160a01b031916301790555b6040518581527f90aedd550c880e8ce9df04c011e7038e7cd271d1fa351cb2fb27dcc93310502c9060200160405180910390a15050505050565b600b60205260009081526040902080546118cf90613854565b80601f01602080910402602001604051908101604052809291908181526020018280546118fb90613854565b80156119485780601f1061191d57610100808354040283529160200191611948565b820191906000526020600020905b81548152906001019060200180831161192b57829003601f168201915b505050505081565b336001600160a01b03831614156119a95760405162461bcd60e51b815260206004820152601c60248201527f43616e6e6f742073656e6420746f2074686973206164647265737320000000006044820152606401610632565b806119b433856105cb565b10156119d25760405162461bcd60e51b8152600401610632906136c4565b6119ee33838584604051806020016040528060008152506124f9565b60005b336000908152600a6020526040902054811015611ac157336000908152600a60205260409020805485919083908110611a3a57634e487b7160e01b600052603260045260246000fd5b9060005260206000209060060201600001541415611aaf57336000908152600a60205260409020805483919083908110611a8457634e487b7160e01b600052603260045260246000fd5b90600052602060002090600602016003016000828254611aa4919061383d565b90915550611ac19050565b80611ab9816138bc565b9150506119f1565b506000805b6001600160a01b0384166000908152600a6020526040902054811015611bb5576001600160a01b0384166000908152600a60205260409020805486919083908110611b2157634e487b7160e01b600052603260045260246000fd5b9060005260206000209060060201600001541415611ba3576001600160a01b0384166000908152600a60205260409020805484919083908110611b7457634e487b7160e01b600052603260045260246000fd5b90600052602060002090600602016003016000828254611b949190613806565b9091555060019250611bb59050565b80611bad816138bc565b915050611ac6565b5080611c97576001600160a01b038381166000908152600a60209081526040808320815160c08101835289815289855260098085528386206001808201548916848801908152600280840154868901908152606087018e8152958a526004948501546080880190815289518c8152808c01909a5260a08801998a5288548086018a55988c529a8a90208751600690990201978855915192870180546001600160a01b03191693909b1692909217909955975197840197909755516003830155935194810194909455518051929392611c939260058501920190612e31565b5050505b60005b600085815260086020526040902054811015611d6f576000858152600860205260409020805433919083908110611ce157634e487b7160e01b600052603260045260246000fd5b60009182526020909120600290910201546001600160a01b03161415611d5d576000858152600860205260409020805484919083908110611d3257634e487b7160e01b600052603260045260246000fd5b90600052602060002090600202016001016000828254611d52919061383d565b90915550611d6f9050565b80611d67816138bc565b915050611c9a565b506000805b600086815260086020526040902054811015611e5657600086815260086020526040902080546001600160a01b038716919083908110611dc457634e487b7160e01b600052603260045260246000fd5b60009182526020909120600290910201546001600160a01b03161415611e44576000868152600860205260409020805485919083908110611e1557634e487b7160e01b600052603260045260246000fd5b90600052602060002090600202016001016000828254611e359190613806565b9091555060019250611e569050565b80611e4e816138bc565b915050611d74565b5080611ebe57600085815260086020908152604080832081518083019092526001600160a01b038881168352828401888152825460018082018555938752949095209251600290940290920180546001600160a01b0319169390921692909217815591519101555b6000805b600087815260096020526040902060050154811015611f4e57600087815260096020526040902060050180546001600160a01b038816919083908110611f1857634e487b7160e01b600052603260045260246000fd5b6000918252602090912001546001600160a01b03161415611f3c5760019150611f4e565b80611f46816138bc565b915050611ec2565b5080611f8f5760008681526009602090815260408220600501805460018101825590835291200180546001600160a01b0319166001600160a01b0387161790555b604080518781523360208201526001600160a01b038716818301526060810186905290517fdc5e8cc6b36001921ea942b2d0334e09fcc347e33b47a83d9a6c5c2a521d329c9181900360800190a1505050505050565b611ff0338383612821565b5050565b60008083116120515760405162461bcd60e51b815260206004820152602360248201527f546f74616c20737570706c79206d75737420626520677265617465722074686160448201526206e20360ec1b6064820152608401610632565b600654341461209b5760405162461bcd60e51b815260206004820152601660248201527553656e642074686520636f727265637420707269636560501b6044820152606401610632565b662386f26fc100008210156120fe5760405162461bcd60e51b815260206004820152602360248201527f50726963652073686f756c64206265206d6f7265207468616e20302e303039206044820152620cae8d60eb1b6064820152608401610632565b600061210960035490565b604080516001808252818301909252919250600091906020808301908036833750505060008381526007602090815260408083208990558051918201905290815290915061215c90339084908890612902565b6005546006546040516001600160a01b039092169181156108fc0291906000818181858888f19350505050158015612198573d6000803e3d6000fd5b5060008281526008602090815260408083208151808301909252338083528284018a81528254600180820185559387529486209351600290950290930180546001600160a01b0319166001600160a01b03909516949094178455915192019190915582519091839161221a57634e487b7160e01b600052603260045260246000fd5b6001600160a01b039283166020918202929092018101919091526040805160c08101825285815233818401908152818301898152606083018b8152608084018c815260a0850189815260008b815260098952969096208551815593516001850180546001600160a01b03191691909916179097559051600283015551600382015593516004850155905180519193926122bb92600585019290910190612e31565b5050336000818152600a60209081526040808320815160c0810183528881528084019586529182018a8152606083018c8152608084018d815260a085018a8152845460018082018755958952978790208651600690990201978855975193870180546001600160a01b0319166001600160a01b0390951694909417909355905160028601555160038501555160048401559251805193945091926123659260058501920190612e31565b505060408051848152602081018890527f52922827b9438aa2e63a37e11aa3ae44e0536c26374251088fbc3a47589aed7b92500160405180910390a160006123ac60035490565b90506123b88188612a16565b6123c6600380546001019055565b9695505050505050565b6005546001600160a01b031633146124365760405162461bcd60e51b815260206004820152602360248201527f4f6e6c79206f776e65722063616e20757064617465206c697374696e6720707260448201526269636560e81b6064820152608401610632565b600655565b612443612df2565b600082815260096020908152604091829020825160c0810184528154815260018201546001600160a01b03168184015260028201548185015260038201546060820152600482015460808201526005820180548551818602810186019096528086529194929360a086019392908301828280156124e957602002820191906000526020600020905b81546001600160a01b031681526001909101906020018083116124cb575b5050505050815250509050919050565b6001600160a01b03851633148061251557506125158533610524565b6125315760405162461bcd60e51b8152600401610632906136f2565b610a2b8585858585612a3a565b606060086000838152602001908152602001600020805480602002602001604051908101604052809291908181526020016000905b828210156107c6576000848152602090819020604080518082019091526002850290910180546001600160a01b03168252600190810154828401529083529092019101612573565b60006001600160e01b03198216636cdb3d1360e11b14806125ec57506001600160e01b031982166303a24d0760e21b145b8061067b57506301ffc9a760e01b6001600160e01b031983161461067b565b60006001600160e01b03198216630271189760e51b148061067b575061067b826125bb565b81518351146126925760405162461bcd60e51b815260206004820152602860248201527f455243313135353a2069647320616e6420616d6f756e7473206c656e677468206044820152670dad2e6dac2e8c6d60c31b6064820152608401610632565b6001600160a01b0384166126b85760405162461bcd60e51b815260040161063290613740565b3360005b84518110156127bb5760008582815181106126e757634e487b7160e01b600052603260045260246000fd5b60200260200101519050600085838151811061271357634e487b7160e01b600052603260045260246000fd5b602090810291909101810151600084815280835260408082206001600160a01b038e1683529093529190912054909150818110156127635760405162461bcd60e51b815260040161063290613785565b6000838152602081815260408083206001600160a01b038e8116855292528083208585039055908b168252812080548492906127a0908490613806565b92505081905550505050806127b4906138bc565b90506126bc565b50846001600160a01b0316866001600160a01b0316826001600160a01b03167f4a39dc06d4c0dbc64b70af90fd698a233a518aa5d07e595d983b8c0526c8f7fb878760405161280b92919061363b565b60405180910390a4611167818787878787612b64565b816001600160a01b0316836001600160a01b031614156128955760405162461bcd60e51b815260206004820152602960248201527f455243313135353a2073657474696e6720617070726f76616c20737461747573604482015268103337b91039b2b63360b91b6064820152608401610632565b6001600160a01b03838116600081815260016020908152604080832094871680845294825291829020805460ff191686151590811790915591519182527f17307eab39ab6107e8899845ad3d59bd9653f200f220920489ca2b5937696c31910160405180910390a3505050565b6001600160a01b0384166129625760405162461bcd60e51b815260206004820152602160248201527f455243313135353a206d696e7420746f20746865207a65726f206164647265736044820152607360f81b6064820152608401610632565b33600061296e85612ccf565b9050600061297b85612ccf565b90506000868152602081815260408083206001600160a01b038b168452909152812080548792906129ad908490613806565b909155505060408051878152602081018790526001600160a01b03808a1692600092918716917fc3d58168c5ae7397731d063d5bbf3d657854427343f4c083240f7aacaa2d0f62910160405180910390a4612a0d83600089898989612d28565b50505050505050565b6000828152600b602090815260409091208251612a3592840190612e96565b505050565b6001600160a01b038416612a605760405162461bcd60e51b815260040161063290613740565b336000612a6c85612ccf565b90506000612a7985612ccf565b90506000868152602081815260408083206001600160a01b038c16845290915290205485811015612abc5760405162461bcd60e51b815260040161063290613785565b6000878152602081815260408083206001600160a01b038d8116855292528083208985039055908a16825281208054889290612af9908490613806565b909155505060408051888152602081018890526001600160a01b03808b16928c821692918816917fc3d58168c5ae7397731d063d5bbf3d657854427343f4c083240f7aacaa2d0f62910160405180910390a4612b59848a8a8a8a8a612d28565b505050505050505050565b6001600160a01b0384163b156111675760405163bc197c8160e01b81526001600160a01b0385169063bc197c8190612ba890899089908890889088906004016134cc565b602060405180830381600087803b158015612bc257600080fd5b505af1925050508015612bf2575060408051601f3d908101601f19168201909252612bef918101906132d2565b60015b612c9f57612bfe613903565b806308c379a01415612c385750612c1361391b565b80612c1e5750612c3a565b8060405162461bcd60e51b81526004016106329190613669565b505b60405162461bcd60e51b815260206004820152603460248201527f455243313135353a207472616e7366657220746f206e6f6e2d455243313135356044820152732932b1b2b4bb32b91034b6b83632b6b2b73a32b960611b6064820152608401610632565b6001600160e01b0319811663bc197c8160e01b14612a0d5760405162461bcd60e51b81526004016106329061367c565b60408051600180825281830190925260609160009190602080830190803683370190505090508281600081518110612d1757634e487b7160e01b600052603260045260246000fd5b602090810291909101015292915050565b6001600160a01b0384163b156111675760405163f23a6e6160e01b81526001600160a01b0385169063f23a6e6190612d6c908990899088908890889060040161352a565b602060405180830381600087803b158015612d8657600080fd5b505af1925050508015612db6575060408051601f3d908101601f19168201909252612db3918101906132d2565b60015b612dc257612bfe613903565b6001600160e01b0319811663f23a6e6160e01b14612a0d5760405162461bcd60e51b81526004016106329061367c565b6040518060c001604052806000815260200160006001600160a01b03168152602001600081526020016000815260200160008152602001606081525090565b828054828255906000526020600020908101928215612e86579160200282015b82811115612e8657825182546001600160a01b0319166001600160a01b03909116178255602090920191600190910190612e51565b50612e92929150612f0a565b5090565b828054612ea290613854565b90600052602060002090601f016020900481019282612ec45760008555612e86565b82601f10612edd57805160ff1916838001178555612e86565b82800160010185558215612e86579182015b82811115612e86578251825591602001919060010190612eef565b5b80821115612e925760008155600101612f0b565b600067ffffffffffffffff831115612f3957612f396138ed565b604051612f50601f8501601f19166020018261388f565b809150838152848484011115612f6557600080fd5b83836020830137600060208583010152509392505050565b80356001600160a01b0381168114612f9457600080fd5b919050565b600082601f830112612fa9578081fd5b81356020612fb6826137e2565b604051612fc3828261388f565b8381528281019150858301600585901b87018401881015612fe2578586fd5b855b8581101561300057813584529284019290840190600101612fe4565b5090979650505050505050565b600082601f83011261301d578081fd5b61302c83833560208501612f1f565b9392505050565b600060208284031215613044578081fd5b61302c82612f7d565b6000806040838503121561305f578081fd5b61306883612f7d565b915061307660208401612f7d565b90509250929050565b600080600080600060a08688031215613096578081fd5b61309f86612f7d565b94506130ad60208701612f7d565b9350604086013567ffffffffffffffff808211156130c9578283fd5b6130d589838a01612f99565b945060608801359150808211156130ea578283fd5b6130f689838a01612f99565b9350608088013591508082111561310b578283fd5b506131188882890161300d565b9150509295509295909350565b600080600080600060a0868803121561313c578081fd5b61314586612f7d565b945061315360208701612f7d565b93506040860135925060608601359150608086013567ffffffffffffffff81111561317c578182fd5b6131188882890161300d565b6000806040838503121561319a578182fd5b6131a383612f7d565b9150602083013580151581146131b7578182fd5b809150509250929050565b600080604083850312156131d4578182fd5b6131dd83612f7d565b946020939093013593505050565b600080604083850312156131fd578182fd5b823567ffffffffffffffff80821115613214578384fd5b818501915085601f830112613227578384fd5b81356020613234826137e2565b604051613241828261388f565b8381528281019150858301600585901b870184018b1015613260578889fd5b8896505b848710156132895761327581612f7d565b835260019690960195918301918301613264565b509650508601359250508082111561329f578283fd5b506132ac85828601612f99565b9150509250929050565b6000602082840312156132c7578081fd5b813561302c816139a5565b6000602082840312156132e3578081fd5b815161302c816139a5565b600080600060608486031215613302578081fd5b833567ffffffffffffffff811115613318578182fd5b8401601f81018613613328578182fd5b61333786823560208401612f1f565b9660208601359650604090950135949350505050565b60006020828403121561335e578081fd5b5035919050565b600080600060608486031215613379578081fd5b8335925061338960208501612f7d565b9150604084013590509250925092565b600080604083850312156133ab578182fd5b50508035926020909101359150565b6000815180845260208085019450808401835b838110156133e9578151875295820195908201906001016133cd565b509495945050505050565b60008151808452815b81811015613419576020818501810151868301820152016133fd565b8181111561342a5782602083870101525b50601f01601f19169290920160200192915050565b600060c083018251845260208084015160018060a01b038082168388015260408601516040880152606086015160608801526080860151608088015260a0860151915060c060a088015283825180865260e08901915084840195508693505b808410156134c05785518316825294840194600193909301929084019061349e565b50979650505050505050565b6001600160a01b0386811682528516602082015260a0604082018190526000906134f8908301866133ba565b828103606084015261350a81866133ba565b9050828103608084015261351e81856133f4565b98975050505050505050565b6001600160a01b03868116825285166020820152604081018490526060810183905260a060808201819052600090613564908301846133f4565b979650505050505050565b602080825282518282018190526000919060409081850190868401855b828110156135ba57815180516001600160a01b0316855286015186850152928401929085019060010161358c565b5091979650505050505050565b6000602080830181845280855180835260408601915060408160051b8701019250838701855b8281101561361b57603f1988860301845261360985835161343f565b945092850192908501906001016135ed565b5092979650505050505050565b60208152600061302c60208301846133ba565b60408152600061364e60408301856133ba565b828103602084015261366081856133ba565b95945050505050565b60208152600061302c60208301846133f4565b60208082526028908201527f455243313135353a204552433131353552656365697665722072656a656374656040820152676420746f6b656e7360c01b606082015260800190565b602080825260149082015273496e73756666696369656e742062616c616e636560601b604082015260600190565b6020808252602e908201527f455243313135353a2063616c6c6572206973206e6f7420746f6b656e206f776e60408201526d195c881bdc88185c1c1c9bdd995960921b606082015260800190565b60208082526025908201527f455243313135353a207472616e7366657220746f20746865207a65726f206164604082015264647265737360d81b606082015260800190565b6020808252602a908201527f455243313135353a20696e73756666696369656e742062616c616e636520666f60408201526939103a3930b739b332b960b11b606082015260800190565b60208152600061302c602083018461343f565b600067ffffffffffffffff8211156137fc576137fc6138ed565b5060051b60200190565b60008219821115613819576138196138d7565b500190565b6000816000190483118215151615613838576138386138d7565b500290565b60008282101561384f5761384f6138d7565b500390565b600181811c9082168061386857607f821691505b6020821081141561388957634e487b7160e01b600052602260045260246000fd5b50919050565b601f8201601f1916810167ffffffffffffffff811182821017156138b5576138b56138ed565b6040525050565b60006000198214156138d0576138d06138d7565b5060010190565b634e487b7160e01b600052601160045260246000fd5b634e487b7160e01b600052604160045260246000fd5b600060033d111561391857600481823e5160e01c5b90565b600060443d10156139295790565b6040516003193d81016004833e81513d67ffffffffffffffff816024840111818411171561395957505050505090565b82850191508151818111156139715750505050505090565b843d870101602082850101111561398b5750505050505090565b61399a6020828601018761388f565b509095945050505050565b6001600160e01b0319811681146139bb57600080fd5b5056fea2646970667358221220230c47817a8b5cd3fc1a2501088be5af108fdd72a1e1c23cde71a34f527cd04964736f6c63430008040033",
  "linkReferences": {},
  "deployedLinkReferences": {}
}