{
  "_format": "hh-sol-artifact-1",
  "contractName": "NFTMarketplace",
  "sourceName": "contracts/NFTMarketplace.sol",
  "abi": [
    {
      "inputs": [],
      "stateMutability": "nonpayable",
      "type": "constructor"
    },
    {
      "anonymous": false,
      "inputs": [
        {
          "indexed": true,
          "internalType": "address",
          "name": "owner",
          "type": "address"
        },
        {
          "indexed": true,
          "internalType": "address",
          "name": "approved",
          "type": "address"
        },
        {
          "indexed": true,
          "internalType": "uint256",
          "name": "tokenId",
          "type": "uint256"
        }
      ],
      "name": "Approval",
      "type": "event"
    },
    {
      "anonymous": false,
      "inputs": [
        {
          "indexed": true,
          "internalType": "address",
          "name": "owner",
          "type": "address"
        },
        {
          "indexed": true,
          "internalType": "address",
          "name": "operator",
          "type": "address"
        },
        {
          "indexed": false,
          "internalType": "bool",
          "name": "approved",
          "type": "bool"
        }
      ],
      "name": "ApprovalForAll",
      "type": "event"
    },
    {
      "anonymous": false,
      "inputs": [
        {
          "indexed": false,
          "internalType": "uint256",
          "name": "_fromTokenId",
          "type": "uint256"
        },
        {
          "indexed": false,
          "internalType": "uint256",
          "name": "_toTokenId",
          "type": "uint256"
        }
      ],
      "name": "BatchMetadataUpdate",
      "type": "event"
    },
    {
      "anonymous": false,
      "inputs": [
        {
          "indexed": false,
          "internalType": "uint256",
          "name": "_tokenId",
          "type": "uint256"
        }
      ],
      "name": "MetadataUpdate",
      "type": "event"
    },
    {
      "anonymous": false,
      "inputs": [
        {
          "indexed": false,
          "internalType": "uint256",
          "name": "tokenId",
          "type": "uint256"
        }
      ],
      "name": "TokenListed",
      "type": "event"
    },
    {
      "anonymous": false,
      "inputs": [
        {
          "indexed": true,
          "internalType": "uint256",
          "name": "tokenId",
          "type": "uint256"
        },
        {
          "indexed": false,
          "internalType": "address",
          "name": "owner",
          "type": "address"
        },
        {
          "indexed": false,
          "internalType": "address",
          "name": "seller",
          "type": "address"
        },
        {
          "indexed": false,
          "internalType": "uint256",
          "name": "price",
          "type": "uint256"
        },
        {
          "indexed": false,
          "internalType": "bool",
          "name": "currentlyListed",
          "type": "bool"
        }
      ],
      "name": "TokenListedSuccess",
      "type": "event"
    },
    {
      "anonymous": false,
      "inputs": [
        {
          "indexed": true,
          "internalType": "address",
          "name": "from",
          "type": "address"
        },
        {
          "indexed": true,
          "internalType": "address",
          "name": "to",
          "type": "address"
        },
        {
          "indexed": true,
          "internalType": "uint256",
          "name": "tokenId",
          "type": "uint256"
        }
      ],
      "name": "Transfer",
      "type": "event"
    },
    {
      "inputs": [
        {
          "internalType": "address",
          "name": "to",
          "type": "address"
        },
        {
          "internalType": "uint256",
          "name": "tokenId",
          "type": "uint256"
        }
      ],
      "name": "approve",
      "outputs": [],
      "stateMutability": "nonpayable",
      "type": "function"
    },
    {
      "inputs": [
        {
          "internalType": "address",
          "name": "owner",
          "type": "address"
        }
      ],
      "name": "balanceOf",
      "outputs": [
        {
          "internalType": "uint256",
          "name": "",
          "type": "uint256"
        }
      ],
      "stateMutability": "view",
      "type": "function"
    },
    {
      "inputs": [
        {
          "internalType": "uint256",
          "name": "_tokenId",
          "type": "uint256"
        }
      ],
      "name": "bringToMarket",
      "outputs": [],
      "stateMutability": "payable",
      "type": "function"
    },
    {
      "inputs": [
        {
          "internalType": "string",
          "name": "tokenURI",
          "type": "string"
        },
        {
          "internalType": "uint256",
          "name": "price",
          "type": "uint256"
        },
        {
          "internalType": "bool",
          "name": "dontApproveSell",
          "type": "bool"
        }
      ],
      "name": "createToken",
      "outputs": [
        {
          "internalType": "uint256",
          "name": "",
          "type": "uint256"
        }
      ],
      "stateMutability": "payable",
      "type": "function"
    },
    {
      "inputs": [
        {
          "internalType": "uint256",
          "name": "tokenId",
          "type": "uint256"
        }
      ],
      "name": "executeSale",
      "outputs": [],
      "stateMutability": "payable",
      "type": "function"
    },
    {
      "inputs": [],
      "name": "getAllNFTs",
      "outputs": [
        {
          "components": [
            {
              "internalType": "uint256",
              "name": "tokenId",
              "type": "uint256"
            },
            {
              "internalType": "address payable",
              "name": "owner",
              "type": "address"
            },
            {
              "internalType": "address payable",
              "name": "seller",
              "type": "address"
            },
            {
              "internalType": "uint256",
              "name": "price",
              "type": "uint256"
            },
            {
              "internalType": "bool",
              "name": "currentlyListed",
              "type": "bool"
            }
          ],
          "internalType": "struct NFTMarketplace.ListedToken[]",
          "name": "",
          "type": "tuple[]"
        }
      ],
      "stateMutability": "view",
      "type": "function"
    },
    {
      "inputs": [
        {
          "internalType": "uint256",
          "name": "tokenId",
          "type": "uint256"
        }
      ],
      "name": "getApproved",
      "outputs": [
        {
          "internalType": "address",
          "name": "",
          "type": "address"
        }
      ],
      "stateMutability": "view",
      "type": "function"
    },
    {
      "inputs": [],
      "name": "getCurrentToken",
      "outputs": [
        {
          "internalType": "uint256",
          "name": "",
          "type": "uint256"
        }
      ],
      "stateMutability": "view",
      "type": "function"
    },
    {
      "inputs": [],
      "name": "getLatestIdToListedToken",
      "outputs": [
        {
          "components": [
            {
              "internalType": "uint256",
              "name": "tokenId",
              "type": "uint256"
            },
            {
              "internalType": "address payable",
              "name": "owner",
              "type": "address"
            },
            {
              "internalType": "address payable",
              "name": "seller",
              "type": "address"
            },
            {
              "internalType": "uint256",
              "name": "price",
              "type": "uint256"
            },
            {
              "internalType": "bool",
              "name": "currentlyListed",
              "type": "bool"
            }
          ],
          "internalType": "struct NFTMarketplace.ListedToken",
          "name": "",
          "type": "tuple"
        }
      ],
      "stateMutability": "view",
      "type": "function"
    },
    {
      "inputs": [],
      "name": "getListPrice",
      "outputs": [
        {
          "internalType": "uint256",
          "name": "",
          "type": "uint256"
        }
      ],
      "stateMutability": "view",
      "type": "function"
    },
    {
      "inputs": [
        {
          "internalType": "uint256",
          "name": "tokenId",
          "type": "uint256"
        }
      ],
      "name": "getListedTokenForId",
      "outputs": [
        {
          "components": [
            {
              "internalType": "uint256",
              "name": "tokenId",
              "type": "uint256"
            },
            {
              "internalType": "address payable",
              "name": "owner",
              "type": "address"
            },
            {
              "internalType": "address payable",
              "name": "seller",
              "type": "address"
            },
            {
              "internalType": "uint256",
              "name": "price",
              "type": "uint256"
            },
            {
              "internalType": "bool",
              "name": "currentlyListed",
              "type": "bool"
            }
          ],
          "internalType": "struct NFTMarketplace.ListedToken",
          "name": "",
          "type": "tuple"
        }
      ],
      "stateMutability": "view",
      "type": "function"
    },
    {
      "inputs": [],
      "name": "getMyNFTs",
      "outputs": [
        {
          "components": [
            {
              "internalType": "uint256",
              "name": "tokenId",
              "type": "uint256"
            },
            {
              "internalType": "address payable",
              "name": "owner",
              "type": "address"
            },
            {
              "internalType": "address payable",
              "name": "seller",
              "type": "address"
            },
            {
              "internalType": "uint256",
              "name": "price",
              "type": "uint256"
            },
            {
              "internalType": "bool",
              "name": "currentlyListed",
              "type": "bool"
            }
          ],
          "internalType": "struct NFTMarketplace.ListedToken[]",
          "name": "",
          "type": "tuple[]"
        }
      ],
      "stateMutability": "view",
      "type": "function"
    },
    {
      "inputs": [
        {
          "internalType": "address",
          "name": "owner",
          "type": "address"
        },
        {
          "internalType": "address",
          "name": "operator",
          "type": "address"
        }
      ],
      "name": "isApprovedForAll",
      "outputs": [
        {
          "internalType": "bool",
          "name": "",
          "type": "bool"
        }
      ],
      "stateMutability": "view",
      "type": "function"
    },
    {
      "inputs": [],
      "name": "name",
      "outputs": [
        {
          "internalType": "string",
          "name": "",
          "type": "string"
        }
      ],
      "stateMutability": "view",
      "type": "function"
    },
    {
      "inputs": [
        {
          "internalType": "uint256",
          "name": "tokenId",
          "type": "uint256"
        }
      ],
      "name": "ownerOf",
      "outputs": [
        {
          "internalType": "address",
          "name": "",
          "type": "address"
        }
      ],
      "stateMutability": "view",
      "type": "function"
    },
    {
      "inputs": [
        {
          "internalType": "address",
          "name": "from",
          "type": "address"
        },
        {
          "internalType": "address",
          "name": "to",
          "type": "address"
        },
        {
          "internalType": "uint256",
          "name": "tokenId",
          "type": "uint256"
        }
      ],
      "name": "safeTransferFrom",
      "outputs": [],
      "stateMutability": "nonpayable",
      "type": "function"
    },
    {
      "inputs": [
        {
          "internalType": "address",
          "name": "from",
          "type": "address"
        },
        {
          "internalType": "address",
          "name": "to",
          "type": "address"
        },
        {
          "internalType": "uint256",
          "name": "tokenId",
          "type": "uint256"
        },
        {
          "internalType": "bytes",
          "name": "data",
          "type": "bytes"
        }
      ],
      "name": "safeTransferFrom",
      "outputs": [],
      "stateMutability": "nonpayable",
      "type": "function"
    },
    {
      "inputs": [
        {
          "internalType": "address",
          "name": "operator",
          "type": "address"
        },
        {
          "internalType": "bool",
          "name": "approved",
          "type": "bool"
        }
      ],
      "name": "setApprovalForAll",
      "outputs": [],
      "stateMutability": "nonpayable",
      "type": "function"
    },
    {
      "inputs": [
        {
          "internalType": "bytes4",
          "name": "interfaceId",
          "type": "bytes4"
        }
      ],
      "name": "supportsInterface",
      "outputs": [
        {
          "internalType": "bool",
          "name": "",
          "type": "bool"
        }
      ],
      "stateMutability": "view",
      "type": "function"
    },
    {
      "inputs": [],
      "name": "symbol",
      "outputs": [
        {
          "internalType": "string",
          "name": "",
          "type": "string"
        }
      ],
      "stateMutability": "view",
      "type": "function"
    },
    {
      "inputs": [
        {
          "internalType": "uint256",
          "name": "tokenId",
          "type": "uint256"
        }
      ],
      "name": "tokenURI",
      "outputs": [
        {
          "internalType": "string",
          "name": "",
          "type": "string"
        }
      ],
      "stateMutability": "view",
      "type": "function"
    },
    {
      "inputs": [
        {
          "internalType": "address",
          "name": "from",
          "type": "address"
        },
        {
          "internalType": "address",
          "name": "to",
          "type": "address"
        },
        {
          "internalType": "uint256",
          "name": "tokenId",
          "type": "uint256"
        }
      ],
      "name": "transferFrom",
      "outputs": [],
      "stateMutability": "nonpayable",
      "type": "function"
    },
    {
      "inputs": [
        {
          "internalType": "uint256",
          "name": "_listPrice",
          "type": "uint256"
        }
      ],
      "name": "updateListPrice",
      "outputs": [],
      "stateMutability": "payable",
      "type": "function"
    }
  ],
  "bytecode": "0x6080604052662386f26fc10000600a553480156200001c57600080fd5b50604080518082018252600e81526d4e46544d61726b6574706c61636560901b6020808301918252835180850190945260048452634e46544d60e01b9084015281519192916200006f91600091620000a0565b50805162000085906001906020840190620000a0565b5050600980546001600160a01b031916331790555062000183565b828054620000ae9062000146565b90600052602060002090601f016020900481019282620000d257600085556200011d565b82601f10620000ed57805160ff19168380011785556200011d565b828001600101855582156200011d579182015b828111156200011d57825182559160200191906001019062000100565b506200012b9291506200012f565b5090565b5b808211156200012b576000815560010162000130565b600181811c908216806200015b57607f821691505b602082108114156200017d57634e487b7160e01b600052602260045260246000fd5b50919050565b61232c80620001936000396000f3fe6080604052600436106101405760003560e01c80638e264590116100b6578063c87b56dd1161006f578063c87b56dd14610372578063d1a88ae514610392578063e0391b09146103a7578063e985e9c5146103bc578063ef2d1746146103dc578063fe97b82e146103f157600080fd5b80638e264590146102ca57806395d89b41146102f75780639b1225c41461030c578063a22cb4651461031f578063b88d4fde1461033f578063c322579c1461035f57600080fd5b806342842e0e1161010857806342842e0e14610216578063629cb2e4146102365780636352211e1461025857806368f1945f1461027857806370a08231146102975780638dfa7dfd146102b757600080fd5b806301ffc9a71461014557806306fdde031461017a578063081812fc1461019c578063095ea7b3146101d457806323b872dd146101f6575b600080fd5b34801561015157600080fd5b50610165610160366004611f20565b610404565b60405190151581526020015b60405180910390f35b34801561018657600080fd5b5061018f61042f565b60405161017191906120fe565b3480156101a857600080fd5b506101bc6101b7366004611fc0565b6104c1565b6040516001600160a01b039091168152602001610171565b3480156101e057600080fd5b506101f46101ef366004611ef7565b6104e8565b005b34801561020257600080fd5b506101f4610211366004611e1a565b610603565b34801561022257600080fd5b506101f4610231366004611e1a565b610634565b34801561024257600080fd5b5061024b61064f565b60405161017191906120b0565b34801561026457600080fd5b506101bc610273366004611fc0565b610892565b34801561028457600080fd5b50600a545b604051908152602001610171565b3480156102a357600080fd5b506102896102b2366004611dce565b6108f2565b6101f46102c5366004611fc0565b610978565b3480156102d657600080fd5b506102ea6102e5366004611fc0565b610b27565b60405161017191906121f5565b34801561030357600080fd5b5061018f610b91565b6101f461031a366004611fc0565b610ba0565b34801561032b57600080fd5b506101f461033a366004611ece565b610cfe565b34801561034b57600080fd5b506101f461035a366004611e55565b610d0d565b6101f461036d366004611fc0565b610d3f565b34801561037e57600080fd5b5061018f61038d366004611fc0565b610daa565b34801561039e57600080fd5b506102ea610ebb565b3480156103b357600080fd5b5061024b610f32565b3480156103c857600080fd5b506101656103d7366004611de8565b611078565b3480156103e857600080fd5b506102896110a6565b6102896103ff366004611f58565b6110b6565b60006001600160e01b03198216632483248360e11b1480610429575061042982611100565b92915050565b60606000805461043e9061225e565b80601f016020809104026020016040519081016040528092919081815260200182805461046a9061225e565b80156104b75780601f1061048c576101008083540402835291602001916104b7565b820191906000526020600020905b81548152906001019060200180831161049a57829003601f168201915b5050505050905090565b60006104cc82611150565b506000908152600460205260409020546001600160a01b031690565b60006104f382610892565b9050806001600160a01b0316836001600160a01b031614156105665760405162461bcd60e51b815260206004820152602160248201527f4552433732313a20617070726f76616c20746f2063757272656e74206f776e656044820152603960f91b60648201526084015b60405180910390fd5b336001600160a01b038216148061058257506105828133611078565b6105f45760405162461bcd60e51b815260206004820152603d60248201527f4552433732313a20617070726f76652063616c6c6572206973206e6f7420746f60448201527f6b656e206f776e6572206f7220617070726f76656420666f7220616c6c000000606482015260840161055d565b6105fe83836111b2565b505050565b61060d3382611220565b6106295760405162461bcd60e51b815260040161055d90612111565b6105fe83838361127e565b6105fe83838360405180602001604052806000815250610d0d565b6060600061065c60075490565b905060008080805b848110156106f45733600b600061067c846001612203565b81526020810191909152604001600020600101546001600160a01b031614806106cf575033600b60006106b0846001612203565b81526020810191909152604001600020600201546001600160a01b0316145b156106e2576106df600185612203565b93505b806106ec81612299565b915050610664565b5060008367ffffffffffffffff81111561071e57634e487b7160e01b600052604160045260246000fd5b60405190808252806020026020018201604052801561075757816020015b610744611c65565b81526020019060019003908161073c5790505b50905060005b858110156108885733600b6000610775846001612203565b81526020810191909152604001600020600101546001600160a01b031614806107c8575033600b60006107a9846001612203565b81526020810191909152604001600020600201546001600160a01b0316145b15610876576107d8816001612203565b6000818152600b6020908152604091829020825160a0810184528154815260018201546001600160a01b039081169382019390935260028201549092169282019290925260038201546060820152600482015460ff16151560808201528451929550909184908790811061085c57634e487b7160e01b600052603260045260246000fd5b6020908102919091010152610872600186612203565b9450505b8061088081612299565b91505061075d565b5095945050505050565b6000818152600260205260408120546001600160a01b0316806104295760405162461bcd60e51b8152602060048201526018602482015277115490cdcc8c4e881a5b9d985b1a59081d1bdad95b88125160421b604482015260640161055d565b60006001600160a01b03821661095c5760405162461bcd60e51b815260206004820152602960248201527f4552433732313a2061646472657373207a65726f206973206e6f7420612076616044820152683634b21037bbb732b960b91b606482015260840161055d565b506001600160a01b031660009081526003602052604090205490565b6000818152600b60205260409020600201546001600160a01b031633146109f15760405162461bcd60e51b815260206004820152602760248201527f4f6e6c79207468652073656c6c65722063616e2070757420746f6b656e206f6e604482015266081b585c9ad95d60ca1b606482015260840161055d565b6000818152600b602052604090206004015460ff1615610a535760405162461bcd60e51b815260206004820152601760248201527f546f6b656e20697320616c7265616479206c6973746564000000000000000000604482015260640161055d565b6000818152600260205260409020546001600160a01b0316610aae5760405162461bcd60e51b8152602060048201526014602482015273151bdad95b88191bd95cc81b9bdd08195e1a5cdd60621b604482015260640161055d565b610ab933308361127e565b6000818152600b60205260409081902060048101805460ff191660019081179091550180546001600160a01b03191630179055517f90aedd550c880e8ce9df04c011e7038e7cd271d1fa351cb2fb27dcc93310502c90610b1c9083815260200190565b60405180910390a150565b610b2f611c65565b506000908152600b6020908152604091829020825160a0810184528154815260018201546001600160a01b03908116938201939093526002820154909216928201929092526003820154606082015260049091015460ff161515608082015290565b60606001805461043e9061225e565b6000818152600b6020526040902060038101546002909101546001600160a01b031634821115610c3a576040805162461bcd60e51b81526020600482015260248101919091527f506c65617365207375626d6974207468652061736b696e67207072696365206960448201527f6e206f7264657220746f20636f6d706c65746520746865207075726368617365606482015260840161055d565b6000838152600b602052604090206002810180546001600160a01b03191633179055600401805460ff19169055610c75600880546001019055565b610c8030338561127e565b6040516001600160a01b0382169083156108fc029084906000818181858888f19350505050158015610cb6573d6000803e3d6000fd5b506009546001600160a01b03166108fc610cd0843461221b565b6040518115909202916000818181858888f19350505050158015610cf8573d6000803e3d6000fd5b50505050565b610d093383836113e2565b5050565b610d173383611220565b610d335760405162461bcd60e51b815260040161055d90612111565b610cf8848484846114b1565b6009546001600160a01b03163314610da55760405162461bcd60e51b815260206004820152602360248201527f4f6e6c79206f776e65722063616e20757064617465206c697374696e6720707260448201526269636560e81b606482015260840161055d565b600a55565b6060610db582611150565b60008281526006602052604081208054610dce9061225e565b80601f0160208091040260200160405190810160405280929190818152602001828054610dfa9061225e565b8015610e475780601f10610e1c57610100808354040283529160200191610e47565b820191906000526020600020905b815481529060010190602001808311610e2a57829003601f168201915b505050505090506000610e6560408051602081019091526000815290565b9050805160001415610e78575092915050565b815115610eaa578082604051602001610e92929190612044565b60405160208183030381529060405292505050919050565b610eb3846114e4565b949350505050565b610ec3611c65565b6000610ece60075490565b6000908152600b6020908152604091829020825160a0810184528154815260018201546001600160a01b03908116938201939093526002820154909216928201929092526003820154606082015260049091015460ff161515608082015292915050565b60606000610f3f60075490565b905060008167ffffffffffffffff811115610f6a57634e487b7160e01b600052604160045260246000fd5b604051908082528060200260200182016040528015610fa357816020015b610f90611c65565b815260200190600190039081610f885790505b509050600080805b8481101561106e57610fbe816001612203565b6000818152600b6020908152604091829020825160a0810184528154815260018201546001600160a01b039081169382019390935260028201549092169282019290925260038201546060820152600482015460ff16151560808201528651929450909186908690811061104257634e487b7160e01b600052603260045260246000fd5b6020908102919091010152611058600185612203565b935050808061106690612299565b915050610fab565b5091949350505050565b6001600160a01b03918216600090815260056020908152604080832093909416825291909152205460ff1690565b60006110b160075490565b905090565b60006110c6600780546001019055565b60006110d160075490565b90506110dd3382611558565b826110ec576110ec30826104e8565b6110f68186611572565b610eb38185611644565b60006001600160e01b031982166380ac58cd60e01b148061113157506001600160e01b03198216635b5e139f60e01b145b8061042957506301ffc9a760e01b6001600160e01b0319831614610429565b6000818152600260205260409020546001600160a01b03166111af5760405162461bcd60e51b8152602060048201526018602482015277115490cdcc8c4e881a5b9d985b1a59081d1bdad95b88125160421b604482015260640161055d565b50565b600081815260046020526040902080546001600160a01b0319166001600160a01b03841690811790915581906111e782610892565b6001600160a01b03167f8c5be1e5ebec7d5bd14f71427d1e84f3dd0314c0f7b2291e5b200ac8c7c3b92560405160405180910390a45050565b60008061122c83610892565b9050806001600160a01b0316846001600160a01b0316148061125357506112538185611078565b80610eb35750836001600160a01b031661126c846104c1565b6001600160a01b031614949350505050565b826001600160a01b031661129182610892565b6001600160a01b0316146112b75760405162461bcd60e51b815260040161055d906121b0565b6001600160a01b0382166113195760405162461bcd60e51b8152602060048201526024808201527f4552433732313a207472616e7366657220746f20746865207a65726f206164646044820152637265737360e01b606482015260840161055d565b826001600160a01b031661132c82610892565b6001600160a01b0316146113525760405162461bcd60e51b815260040161055d906121b0565b600081815260046020908152604080832080546001600160a01b03199081169091556001600160a01b0387811680865260038552838620805460001901905590871680865283862080546001019055868652600290945282852080549092168417909155905184937fddf252ad1be2c89b69c2b068fc378daa952ba7f163c4a11628f55a4df523b3ef91a4505050565b816001600160a01b0316836001600160a01b031614156114445760405162461bcd60e51b815260206004820152601960248201527f4552433732313a20617070726f766520746f2063616c6c657200000000000000604482015260640161055d565b6001600160a01b03838116600081815260056020908152604080832094871680845294825291829020805460ff191686151590811790915591519182527f17307eab39ab6107e8899845ad3d59bd9653f200f220920489ca2b5937696c31910160405180910390a3505050565b6114bc84848461127e565b6114c884848484611817565b610cf85760405162461bcd60e51b815260040161055d9061215e565b60606114ef82611150565b600061150660408051602081019091526000815290565b905060008151116115265760405180602001604052806000815250611551565b8061153084611924565b604051602001611541929190612044565b6040516020818303038152906040525b9392505050565b610d098282604051806020016040528060008152506119cf565b6000828152600260205260409020546001600160a01b03166115ed5760405162461bcd60e51b815260206004820152602e60248201527f45524337323155524953746f726167653a2055524920736574206f66206e6f6e60448201526d32bc34b9ba32b73a103a37b5b2b760911b606482015260840161055d565b6000828152600660209081526040909120825161160c92840190611c93565b506040518281527ff8e1a15aba9398e019f0b49df1a4fde98ee17ae345cb5f6b5e2c27f5033e8ce79060200160405180910390a15050565b600a5434146116a15760405162461bcd60e51b815260206004820152602360248201527f486f706566756c6c792073656e64696e672074686520636f727265637420707260448201526269636560e81b606482015260840161055d565b662386f26fc100008110156117045760405162461bcd60e51b815260206004820152602360248201527f50726963652073686f756c64206265206d6f7265207468616e20302e303039206044820152620cae8d60eb1b606482015260840161055d565b600954600a546040516001600160a01b039092169181156108fc0291906000818181858888f19350505050158015611740573d6000803e3d6000fd5b506040805160a08101825283815230602080830182815233848601818152606080870189815260006080808a018281528d8352600b89528b83209a518b55965160018b0180546001600160a01b03199081166001600160a01b0393841617909155955160028c0180549097169116179094559051600389015593516004909701805460ff1916971515979097179096558651948552928401529382018590529181019290925283917f9339409317fd01fabff48b703019016f49159bacc801ae872d2ca637d226e4c0910160405180910390a25050565b60006001600160a01b0384163b1561191957604051630a85bd0160e11b81526001600160a01b0385169063150b7a029061185b903390899088908890600401612073565b602060405180830381600087803b15801561187557600080fd5b505af19250505080156118a5575060408051601f3d908101601f191682019092526118a291810190611f3c565b60015b6118ff573d8080156118d3576040519150601f19603f3d011682016040523d82523d6000602084013e6118d8565b606091505b5080516118f75760405162461bcd60e51b815260040161055d9061215e565b805181602001fd5b6001600160e01b031916630a85bd0160e11b149050610eb3565b506001949350505050565b6060600061193183611a02565b600101905060008167ffffffffffffffff81111561195f57634e487b7160e01b600052604160045260246000fd5b6040519080825280601f01601f191660200182016040528015611989576020820181803683370190505b5090508181016020015b600019016f181899199a1a9b1b9c1cb0b131b232b360811b600a86061a8153600a85049450846119c2576119c7565b611993565b509392505050565b6119d98383611ada565b6119e66000848484611817565b6105fe5760405162461bcd60e51b815260040161055d9061215e565b60008072184f03e93ff9f4daa797ed6e38ed64bf6a1f0160401b8310611a415772184f03e93ff9f4daa797ed6e38ed64bf6a1f0160401b830492506040015b6d04ee2d6d415b85acef81000000008310611a6d576d04ee2d6d415b85acef8100000000830492506020015b662386f26fc100008310611a8b57662386f26fc10000830492506010015b6305f5e1008310611aa3576305f5e100830492506008015b6127108310611ab757612710830492506004015b60648310611ac9576064830492506002015b600a83106104295760010192915050565b6001600160a01b038216611b305760405162461bcd60e51b815260206004820181905260248201527f4552433732313a206d696e7420746f20746865207a65726f2061646472657373604482015260640161055d565b6000818152600260205260409020546001600160a01b031615611b955760405162461bcd60e51b815260206004820152601c60248201527f4552433732313a20746f6b656e20616c7265616479206d696e74656400000000604482015260640161055d565b6000818152600260205260409020546001600160a01b031615611bfa5760405162461bcd60e51b815260206004820152601c60248201527f4552433732313a20746f6b656e20616c7265616479206d696e74656400000000604482015260640161055d565b6001600160a01b038216600081815260036020908152604080832080546001019055848352600290915280822080546001600160a01b0319168417905551839291907fddf252ad1be2c89b69c2b068fc378daa952ba7f163c4a11628f55a4df523b3ef908290a45050565b6040805160a08101825260008082526020820181905291810182905260608101829052608081019190915290565b828054611c9f9061225e565b90600052602060002090601f016020900481019282611cc15760008555611d07565b82601f10611cda57805160ff1916838001178555611d07565b82800160010185558215611d07579182015b82811115611d07578251825591602001919060010190611cec565b50611d13929150611d17565b5090565b5b80821115611d135760008155600101611d18565b600067ffffffffffffffff80841115611d4757611d476122ca565b604051601f8501601f19908116603f01168101908282118183101715611d6f57611d6f6122ca565b81604052809350858152868686011115611d8857600080fd5b858560208301376000602087830101525050509392505050565b80356001600160a01b0381168114611db957600080fd5b919050565b80358015158114611db957600080fd5b600060208284031215611ddf578081fd5b61155182611da2565b60008060408385031215611dfa578081fd5b611e0383611da2565b9150611e1160208401611da2565b90509250929050565b600080600060608486031215611e2e578081fd5b611e3784611da2565b9250611e4560208501611da2565b9150604084013590509250925092565b60008060008060808587031215611e6a578081fd5b611e7385611da2565b9350611e8160208601611da2565b925060408501359150606085013567ffffffffffffffff811115611ea3578182fd5b8501601f81018713611eb3578182fd5b611ec287823560208401611d2c565b91505092959194509250565b60008060408385031215611ee0578182fd5b611ee983611da2565b9150611e1160208401611dbe565b60008060408385031215611f09578182fd5b611f1283611da2565b946020939093013593505050565b600060208284031215611f31578081fd5b8135611551816122e0565b600060208284031215611f4d578081fd5b8151611551816122e0565b600080600060608486031215611f6c578283fd5b833567ffffffffffffffff811115611f82578384fd5b8401601f81018613611f92578384fd5b611fa186823560208401611d2c565b93505060208401359150611fb760408501611dbe565b90509250925092565b600060208284031215611fd1578081fd5b5035919050565b60008151808452611ff0816020860160208601612232565b601f01601f19169290920160200192915050565b805182526020808201516001600160a01b039081169184019190915260408083015190911690830152606080820151908301526080908101511515910152565b60008351612056818460208801612232565b83519083019061206a818360208801612232565b01949350505050565b6001600160a01b03858116825284166020820152604081018390526080606082018190526000906120a690830184611fd8565b9695505050505050565b6020808252825182820181905260009190848201906040850190845b818110156120f2576120df838551612004565b9284019260a092909201916001016120cc565b50909695505050505050565b6020815260006115516020830184611fd8565b6020808252602d908201527f4552433732313a2063616c6c6572206973206e6f7420746f6b656e206f776e6560408201526c1c881bdc88185c1c1c9bdd9959609a1b606082015260800190565b60208082526032908201527f4552433732313a207472616e7366657220746f206e6f6e20455243373231526560408201527131b2b4bb32b91034b6b83632b6b2b73a32b960711b606082015260800190565b60208082526025908201527f4552433732313a207472616e736665722066726f6d20696e636f72726563742060408201526437bbb732b960d91b606082015260800190565b60a081016104298284612004565b60008219821115612216576122166122b4565b500190565b60008282101561222d5761222d6122b4565b500390565b60005b8381101561224d578181015183820152602001612235565b83811115610cf85750506000910152565b600181811c9082168061227257607f821691505b6020821081141561229357634e487b7160e01b600052602260045260246000fd5b50919050565b60006000198214156122ad576122ad6122b4565b5060010190565b634e487b7160e01b600052601160045260246000fd5b634e487b7160e01b600052604160045260246000fd5b6001600160e01b0319811681146111af57600080fdfea264697066735822122034c03ca803b58d6152cc4bd27609ab4c1e0dbb3ca3a028ad65dc6e67b1c6888464736f6c63430008040033",
  "linkReferences": {},
  "deployedLinkReferences": {}
}